01REMESSA01COBRANCA       2643103361110000177                               748SICREDI        20170213        0000032                                                                                                                                                                                                                                                                                 2.00000001
1AAA            AAB                            172305360      20170213 N B0000    00000000000002            0100000305362802170000000025000         KS210217000000000000000012002170000000000000000000000000000000000000001000004740788179GUSTAVO RODIGHERI DOS SANTOS            FLORIANO BRUM                           00000000000 7983016000000                                                       000002
1AAA            AAB                            172305379      20170213 N B0210    00000000000002            0100000305373103170000000025000         KS240317000000000000000011003170000000000000000000000000000000000000001000004740788179GUSTAVO RODIGHERI DOS SANTOS            FLORIANO BRUM                           00000000000 7983016000000                                                       000003
1AAA            AAB                            172305387      20170213 N B0310    00000000000002            0100000305383004170000000025000         KS230417000000000000000011004170000000000000000000000000000000000000001000004740788179GUSTAVO RODIGHERI DOS SANTOS            FLORIANO BRUM                           00000000000 7983016000000                                                       000004
1AAA            AAB                            172305395      20170213 N B0410    00000000000002            0100000305393105170000000000000         KS240517000000000000000011005170000000000000000000000000000000000000001000004740788179GUSTAVO RODIGHERI DOS SANTOS            FLORIANO BRUM                           00000000000 7983016000000                                                       000005
1AAA            AAB                            172305409      20170213 N B0510    00000000000002            0100000305403006170000000000000         KS230617000000000000000011006170000000000000000000000000000000000000001000004740788179GUSTAVO RODIGHERI DOS SANTOS            FLORIANO BRUM                           00000000000 7983016000000                                                       000006
1AAA            AAB                            172305417      20170213 N B0610    00000000000002            0100000305413107170000000000000         KS240717000000000000000011007170000000000000000000000000000000000000001000004740788179GUSTAVO RODIGHERI DOS SANTOS            FLORIANO BRUM                           00000000000 7983016000000                                                       000007
1AAA            AAB                            172305425      20170213 N B0710    00000000000002            0100000305423108170000000000000         KS240817000000000000000011008170000000000000000000000000000000000000001000004740788179GUSTAVO RODIGHERI DOS SANTOS            FLORIANO BRUM                           00000000000 7983016000000                                                       000008
1AAA            AAB                            172305433      20170213 N B0810    00000000000002            0100000305433009170000000000000         KS230917000000000000000011009170000000000000000000000000000000000000001000004740788179GUSTAVO RODIGHERI DOS SANTOS            FLORIANO BRUM                           00000000000 7983016000000                                                       000009
1AAA            AAB                            172305441      20170213 N B0910    00000000000002            0100000305443110170000000000000         KS241017000000000000000011010170000000000000000000000000000000000000001000004740788179GUSTAVO RODIGHERI DOS SANTOS            FLORIANO BRUM                           00000000000 7983016000000                                                       000010
1AAA            AAB                            172305450      20170213 N B1010    00000000000002            0100000305453011170000000000000         KS231117000000000000000011011170000000000000000000000000000000000000001000004740788179GUSTAVO RODIGHERI DOS SANTOS            FLORIANO BRUM                           00000000000 7983016000000                                                       000011
1AAA            AAB                            172303562      20170213 N B1110    00000000000002            0100000303563101170000000093214         KS240117000000000000000011001170000000003414000000000000000000000000001000038561883120REGINA APARECIDA ROSA DE SOUZA ALOVISI  OSMAN AHAMAD GEBARA                     00000000000 7982346100000                                                       000012
1AAA            AAB                            172303570      20170213 N B0110    00000000000002            0100000303572802170000000093214         KS210217000000000000000012002170000000003414000000000000000000000000001000038561883120REGINA APARECIDA ROSA DE SOUZA ALOVISI  OSMAN AHAMAD GEBARA                     00000000000 7982346100000                                                       000013
1AAA            AAB                            172303589      20170213 N B0210    00000000000002            0100000303583103170000000093214         KS240317000000000000000011003170000000003414000000000000000000000000001000038561883120REGINA APARECIDA ROSA DE SOUZA ALOVISI  OSMAN AHAMAD GEBARA                     00000000000 7982346100000                                                       000014
1AAA            AAB                            172303597      20170213 N B0310    00000000000002            0100000303593004170000000068214         KS230417000000000000000011004170000000003414000000000000000000000000001000038561883120REGINA APARECIDA ROSA DE SOUZA ALOVISI  OSMAN AHAMAD GEBARA                     00000000000 7982346100000                                                       000015
1AAA            AAB                            172303600      20170213 N B0410    00000000000002            0100000303603105170000000068214         KS240517000000000000000011005170000000003414000000000000000000000000001000038561883120REGINA APARECIDA ROSA DE SOUZA ALOVISI  OSMAN AHAMAD GEBARA                     00000000000 7982346100000                                                       000016
1AAA            AAB                            172303619      20170213 N B0510    00000000000002            0100000303613006170000000068214         KS230617000000000000000011006170000000003414000000000000000000000000001000038561883120REGINA APARECIDA ROSA DE SOUZA ALOVISI  OSMAN AHAMAD GEBARA                     00000000000 7982346100000                                                       000017
1AAA            AAB                            172303627      20170213 N B0610    00000000000002            0100000303623107170000000068214         KS240717000000000000000011007170000000003414000000000000000000000000001000038561883120REGINA APARECIDA ROSA DE SOUZA ALOVISI  OSMAN AHAMAD GEBARA                     00000000000 7982346100000                                                       000018
1AAA            AAB                            172303635      20170213 N B0710    00000000000002            0100000303633108170000000068214         KS240817000000000000000011008170000000003414000000000000000000000000001000038561883120REGINA APARECIDA ROSA DE SOUZA ALOVISI  OSMAN AHAMAD GEBARA                     00000000000 7982346100000                                                       000019
1AAA            AAB                            172303643      20170213 N B0810    00000000000002            0100000303643009170000000068214         KS230917000000000000000011009170000000003414000000000000000000000000001000038561883120REGINA APARECIDA ROSA DE SOUZA ALOVISI  OSMAN AHAMAD GEBARA                     00000000000 7982346100000                                                       000020
1AAA            AAB                            172303651      20170213 N B0910    00000000000002            0100000303653110170000000068214         KS241017000000000000000011010170000000003414000000000000000000000000001000038561883120REGINA APARECIDA ROSA DE SOUZA ALOVISI  OSMAN AHAMAD GEBARA                     00000000000 7982346100000                                                       000021
1AAA            AAB                            172307169      20170213 N B1010    00000000000002            0100000307162802170000000059107         KS210217000000000000000012002170000000001707000000000000000000000000001000003747851126RENATO OJEDA PANCCIERI                  JUSTINO AMARO DE MATOS                  00000000000 7983309000000                                                       000022
1AAA            AAB                            172307177      20170213 N B0210    00000000000002            0100000307173103170000000059107         KS240317000000000000000011003170000000001707000000000000000000000000001000003747851126RENATO OJEDA PANCCIERI                  JUSTINO AMARO DE MATOS                  00000000000 7983309000000                                                       000023
1AAA            AAB                            172307185      20170213 N B0310    00000000000002            0100000307183004170000000059107         KS230417000000000000000011004170000000001707000000000000000000000000001000003747851126RENATO OJEDA PANCCIERI                  JUSTINO AMARO DE MATOS                  00000000000 7983309000000                                                       000024
1AAA            AAB                            172307193      20170213 N B0410    00000000000002            0100000307193105170000000034107         KS240517000000000000000011005170000000001707000000000000000000000000001000003747851126RENATO OJEDA PANCCIERI                  JUSTINO AMARO DE MATOS                  00000000000 7983309000000                                                       000025
1AAA            AAB                            172307207      20170213 N B0510    00000000000002            0100000307203006170000000034107         KS230617000000000000000011006170000000001707000000000000000000000000001000003747851126RENATO OJEDA PANCCIERI                  JUSTINO AMARO DE MATOS                  00000000000 7983309000000                                                       000026
1AAA            AAB                            172307215      20170213 N B0610    00000000000002            0100000307213107170000000034107         KS240717000000000000000011007170000000001707000000000000000000000000001000003747851126RENATO OJEDA PANCCIERI                  JUSTINO AMARO DE MATOS                  00000000000 7983309000000                                                       000027
1AAA            AAB                            172307223      20170213 N B0710    00000000000002            0100000307223108170000000034107         KS240817000000000000000011008170000000001707000000000000000000000000001000003747851126RENATO OJEDA PANCCIERI                  JUSTINO AMARO DE MATOS                  00000000000 7983309000000                                                       000028
1AAA            AAB                            172307231      20170213 N B0810    00000000000002            0100000307233009170000000034107         KS230917000000000000000011009170000000001707000000000000000000000000001000003747851126RENATO OJEDA PANCCIERI                  JUSTINO AMARO DE MATOS                  00000000000 7983309000000                                                       000029
1AAA            AAB                            172307240      20170213 N B0910    00000000000002            0100000307243110170000000034107         KS241017000000000000000011010170000000001707000000000000000000000000001000003747851126RENATO OJEDA PANCCIERI                  JUSTINO AMARO DE MATOS                  00000000000 7983309000000                                                       000030
1AAA            AAB                            172307258      20170213 N B1010    00000000000002            0100000307253011170000000034107         KS231117000000000000000011011170000000001707000000000000000000000000001000003747851126RENATO OJEDA PANCCIERI                  JUSTINO AMARO DE MATOS                  00000000000 7983309000000                                                       000031
1AAA            AAB                            172309773      20170213 N B1110    00000000000002            0100000309773101170000000081845         KS240117000000000000000011001170000000002845000000000000000000000000001000038561883120REGINA APARECIDA ROSA DE SOUZA ALOVISI  OSMAN AHAMAD GEBARA                     00000000000 7982346100000                                                       000032
1AAA            AAB                            172309781      20170213 N B0110    00000000000002            0100000309782802170000000081845         KS210217000000000000000012002170000000002845000000000000000000000000001000038561883120REGINA APARECIDA ROSA DE SOUZA ALOVISI  OSMAN AHAMAD GEBARA                     00000000000 7982346100000                                                       000033
1AAA            AAB                            172309790      20170213 N B0210    00000000000002            0100000309793103170000000081845         KS240317000000000000000011003170000000002845000000000000000000000000001000038561883120REGINA APARECIDA ROSA DE SOUZA ALOVISI  OSMAN AHAMAD GEBARA                     00000000000 7982346100000                                                       000034
1AAA            AAB                            172309803      20170213 N B0310    00000000000002            0100000309803004170000000056845         KS230417000000000000000011004170000000002845000000000000000000000000001000038561883120REGINA APARECIDA ROSA DE SOUZA ALOVISI  OSMAN AHAMAD GEBARA                     00000000000 7982346100000                                                       000035
1AAA            AAB                            172309811      20170213 N B0410    00000000000002            0100000309813105170000000056845         KS240517000000000000000011005170000000002845000000000000000000000000001000038561883120REGINA APARECIDA ROSA DE SOUZA ALOVISI  OSMAN AHAMAD GEBARA                     00000000000 7982346100000                                                       000036
1AAA            AAB                            172309820      20170213 N B0510    00000000000002            0100000309823006170000000056845         KS230617000000000000000011006170000000002845000000000000000000000000001000038561883120REGINA APARECIDA ROSA DE SOUZA ALOVISI  OSMAN AHAMAD GEBARA                     00000000000 7982346100000                                                       000037
1AAA            AAB                            172309838      20170213 N B0610    00000000000002            0100000309833107170000000056845         KS240717000000000000000011007170000000002845000000000000000000000000001000038561883120REGINA APARECIDA ROSA DE SOUZA ALOVISI  OSMAN AHAMAD GEBARA                     00000000000 7982346100000                                                       000038
1AAA            AAB                            172309846      20170213 N B0710    00000000000002            0100000309843108170000000056845         KS240817000000000000000011008170000000002845000000000000000000000000001000038561883120REGINA APARECIDA ROSA DE SOUZA ALOVISI  OSMAN AHAMAD GEBARA                     00000000000 7982346100000                                                       000039
1AAA            AAB                            172309854      20170213 N B0810    00000000000002            0100000309853009170000000056845         KS230917000000000000000011009170000000002845000000000000000000000000001000038561883120REGINA APARECIDA ROSA DE SOUZA ALOVISI  OSMAN AHAMAD GEBARA                     00000000000 7982346100000                                                       000040
1AAA            AAB                            172309862      20170213 N B0910    00000000000002            0100000309863110170000000056845         KS241017000000000000000011010170000000002845000000000000000000000000001000038561883120REGINA APARECIDA ROSA DE SOUZA ALOVISI  OSMAN AHAMAD GEBARA                     00000000000 7982346100000                                                       000041
1AAA            AAB                            172302566      20170213 N B1010    00000000000002            0100000302562802170000000104583         KS210217000000000000000012002170000000003983000000000000000000000000001000066269229120ROSELI PEREIRA DAN                      RUI BARBOSA                             00000000000 7982250000000                                                       000042
1AAA            AAB                            172302574      20170213 N B0210    00000000000002            0100000302573103170000000104583         KS240317000000000000000011003170000000003983000000000000000000000000001000066269229120ROSELI PEREIRA DAN                      RUI BARBOSA                             00000000000 7982250000000                                                       000043
1AAA            AAB                            172302582      20170213 N B0310    00000000000002            0100000302583004170000000104583         KS230417000000000000000011004170000000003983000000000000000000000000001000066269229120ROSELI PEREIRA DAN                      RUI BARBOSA                             00000000000 7982250000000                                                       000044
1AAA            AAB                            172302590      20170213 N B0410    00000000000002            0100000302593105170000000079583         KS240517000000000000000011005170000000003983000000000000000000000000001000066269229120ROSELI PEREIRA DAN                      RUI BARBOSA                             00000000000 7982250000000                                                       000045
1AAA            AAB                            172302604      20170213 N B0510    00000000000002            0100000302603006170000000079583         KS230617000000000000000011006170000000003983000000000000000000000000001000066269229120ROSELI PEREIRA DAN                      RUI BARBOSA                             00000000000 7982250000000                                                       000046
1AAA            AAB                            172302612      20170213 N B0610    00000000000002            0100000302613107170000000079583         KS240717000000000000000011007170000000003983000000000000000000000000001000066269229120ROSELI PEREIRA DAN                      RUI BARBOSA                             00000000000 7982250000000                                                       000047
1AAA            AAB                            172302620      20170213 N B0710    00000000000002            0100000302623108170000000079583         KS240817000000000000000011008170000000003983000000000000000000000000001000066269229120ROSELI PEREIRA DAN                      RUI BARBOSA                             00000000000 7982250000000                                                       000048
1AAA            AAB                            172302639      20170213 N B0810    00000000000002            0100000302633009170000000079583         KS230917000000000000000011009170000000003983000000000000000000000000001000066269229120ROSELI PEREIRA DAN                      RUI BARBOSA                             00000000000 7982250000000                                                       000049
1AAA            AAB                            172302647      20170213 N B0910    00000000000002            0100000302643110170000000079583         KS241017000000000000000011010170000000003983000000000000000000000000001000066269229120ROSELI PEREIRA DAN                      RUI BARBOSA                             00000000000 7982250000000                                                       000050
1AAA            AAB                            172302655      20170213 N B1010    00000000000002            0100000302653011170000000079583         KS231117000000000000000011011170000000003983000000000000000000000000001000066269229120ROSELI PEREIRA DAN                      RUI BARBOSA                             00000000000 7982250000000                                                       000051
1AAA            AAB                            172309161      20170213 N B1110    00000000000002            0100000309162802170000000093214         KS210217000000000000000012002170000000003414000000000000000000000000001000033761930100ADILSON VIEIRA IPOLITO                  TOSHINOBU KATAYAMA                      00000000000 7980603000000                                                       000052
1AAA            AAB                            172309170      20170213 N B0210    00000000000002            0100000309173103170000000093214         KS240317000000000000000011003170000000003414000000000000000000000000001000033761930100ADILSON VIEIRA IPOLITO                  TOSHINOBU KATAYAMA                      00000000000 7980603000000                                                       000053
1AAA            AAB                            172309188      20170213 N B0310    00000000000002            0100000309183004170000000093214         KS230417000000000000000011004170000000003414000000000000000000000000001000033761930100ADILSON VIEIRA IPOLITO                  TOSHINOBU KATAYAMA                      00000000000 7980603000000                                                       000054
1AAA            AAB                            172309196      20170213 N B0410    00000000000002            0100000309193105170000000068214         KS240517000000000000000011005170000000003414000000000000000000000000001000033761930100ADILSON VIEIRA IPOLITO                  TOSHINOBU KATAYAMA                      00000000000 7980603000000                                                       000055
1AAA            AAB                            172309200      20170213 N B0510    00000000000002            0100000309203006170000000068214         KS230617000000000000000011006170000000003414000000000000000000000000001000033761930100ADILSON VIEIRA IPOLITO                  TOSHINOBU KATAYAMA                      00000000000 7980603000000                                                       000056
1AAA            AAB                            172309218      20170213 N B0610    00000000000002            0100000309213107170000000068214         KS240717000000000000000011007170000000003414000000000000000000000000001000033761930100ADILSON VIEIRA IPOLITO                  TOSHINOBU KATAYAMA                      00000000000 7980603000000                                                       000057
1AAA            AAB                            172309226      20170213 N B0710    00000000000002            0100000309223108170000000068214         KS240817000000000000000011008170000000003414000000000000000000000000001000033761930100ADILSON VIEIRA IPOLITO                  TOSHINOBU KATAYAMA                      00000000000 7980603000000                                                       000058
1AAA            AAB                            172309234      20170213 N B0810    00000000000002            0100000309233009170000000068214         KS230917000000000000000011009170000000003414000000000000000000000000001000033761930100ADILSON VIEIRA IPOLITO                  TOSHINOBU KATAYAMA                      00000000000 7980603000000                                                       000059
1AAA            AAB                            172309242      20170213 N B0910    00000000000002            0100000309243110170000000068214         KS241017000000000000000011010170000000003414000000000000000000000000001000033761930100ADILSON VIEIRA IPOLITO                  TOSHINOBU KATAYAMA                      00000000000 7980603000000                                                       000060
1AAA            AAB                            172309250      20170213 N B1010    00000000000002            0100000309253011170000000068214         KS231117000000000000000011011170000000003414000000000000000000000000001000033761930100ADILSON VIEIRA IPOLITO                  TOSHINOBU KATAYAMA                      00000000000 7980603000000                                                       000061
1AAA            AAB                            172309978      20170213 N B1110    00000000000002            0100000309973101170000000098899         KS240117000000000000000011001170000000003699000000000000000000000000001000054380278115ROSELI DA SILVA FURLANI                 FLORIANO PEIXOTO                        00000000000 7980305000000                                                       000062
1AAA            AAB                            172309986      20170213 N B0110    00000000000002            0100000309982802170000000098899         KS210217000000000000000012002170000000003699000000000000000000000000001000054380278115ROSELI DA SILVA FURLANI                 FLORIANO PEIXOTO                        00000000000 7980305000000                                                       000063
1AAA            AAB                            172309994      20170213 N B0210    00000000000002            0100000309993103170000000098899         KS240317000000000000000011003170000000003699000000000000000000000000001000054380278115ROSELI DA SILVA FURLANI                 FLORIANO PEIXOTO                        00000000000 7980305000000                                                       000064
1AAA            AAB                            172310003      20170213 N B0310    00000000000002            0100000310003004170000000073899         KS230417000000000000000011004170000000003699000000000000000000000000001000054380278115ROSELI DA SILVA FURLANI                 FLORIANO PEIXOTO                        00000000000 7980305000000                                                       000065
1AAA            AAB                            172310011      20170213 N B0410    00000000000002            0100000310013105170000000073899         KS240517000000000000000011005170000000003699000000000000000000000000001000054380278115ROSELI DA SILVA FURLANI                 FLORIANO PEIXOTO                        00000000000 7980305000000                                                       000066
1AAA            AAB                            172310020      20170213 N B0510    00000000000002            0100000310023006170000000073899         KS230617000000000000000011006170000000003699000000000000000000000000001000054380278115ROSELI DA SILVA FURLANI                 FLORIANO PEIXOTO                        00000000000 7980305000000                                                       000067
1AAA            AAB                            172310038      20170213 N B0610    00000000000002            0100000310033107170000000073899         KS240717000000000000000011007170000000003699000000000000000000000000001000054380278115ROSELI DA SILVA FURLANI                 FLORIANO PEIXOTO                        00000000000 7980305000000                                                       000068
1AAA            AAB                            172310046      20170213 N B0710    00000000000002            0100000310043108170000000073899         KS240817000000000000000011008170000000003699000000000000000000000000001000054380278115ROSELI DA SILVA FURLANI                 FLORIANO PEIXOTO                        00000000000 7980305000000                                                       000069
1AAA            AAB                            172310054      20170213 N B0810    00000000000002            0100000310053009170000000073899         KS230917000000000000000011009170000000003699000000000000000000000000001000054380278115ROSELI DA SILVA FURLANI                 FLORIANO PEIXOTO                        00000000000 7980305000000                                                       000070
1AAA            AAB                            172310062      20170213 N B0910    00000000000002            0100000310063110170000000073899         KS241017000000000000000011010170000000003699000000000000000000000000001000054380278115ROSELI DA SILVA FURLANI                 FLORIANO PEIXOTO                        00000000000 7980305000000                                                       000071
1AAA            AAB                            172303864      20170213 N B1010    00000000000002            0100000303863101170000000104583         KS240117000000000000000011001170000000003983000000000000000000000000001000089869669120ANGELA CRISTINA DECIAN DE PELLEGRIN     JOSUE VITORINO DA SILVA                 00000000000 7988097000000                                                       000072
1AAA            AAB                            172303872      20170213 N B0110    00000000000002            0100000303872802170000000104583         KS210217000000000000000012002170000000003983000000000000000000000000001000089869669120ANGELA CRISTINA DECIAN DE PELLEGRIN     JOSUE VITORINO DA SILVA                 00000000000 7988097000000                                                       000073
1AAA            AAB                            172303880      20170213 N B0210    00000000000002            0100000303883103170000000104583         KS240317000000000000000011003170000000003983000000000000000000000000001000089869669120ANGELA CRISTINA DECIAN DE PELLEGRIN     JOSUE VITORINO DA SILVA                 00000000000 7988097000000                                                       000074
1AAA            AAB                            172303899      20170213 N B0310    00000000000002            0100000303893004170000000079583         KS230417000000000000000011004170000000003983000000000000000000000000001000089869669120ANGELA CRISTINA DECIAN DE PELLEGRIN     JOSUE VITORINO DA SILVA                 00000000000 7988097000000                                                       000075
1AAA            AAB                            172303902      20170213 N B0410    00000000000002            0100000303903105170000000079583         KS240517000000000000000011005170000000003983000000000000000000000000001000089869669120ANGELA CRISTINA DECIAN DE PELLEGRIN     JOSUE VITORINO DA SILVA                 00000000000 7988097000000                                                       000076
1AAA            AAB                            172303910      20170213 N B0510    00000000000002            0100000303913006170000000079583         KS230617000000000000000011006170000000003983000000000000000000000000001000089869669120ANGELA CRISTINA DECIAN DE PELLEGRIN     JOSUE VITORINO DA SILVA                 00000000000 7988097000000                                                       000077
1AAA            AAB                            172303929      20170213 N B0610    00000000000002            0100000303923107170000000079583         KS240717000000000000000011007170000000003983000000000000000000000000001000089869669120ANGELA CRISTINA DECIAN DE PELLEGRIN     JOSUE VITORINO DA SILVA                 00000000000 7988097000000                                                       000078
1AAA            AAB                            172303937      20170213 N B0710    00000000000002            0100000303933108170000000079583         KS240817000000000000000011008170000000003983000000000000000000000000001000089869669120ANGELA CRISTINA DECIAN DE PELLEGRIN     JOSUE VITORINO DA SILVA                 00000000000 7988097000000                                                       000079
1AAA            AAB                            172303945      20170213 N B0810    00000000000002            0100000303943009170000000079583         KS230917000000000000000011009170000000003983000000000000000000000000001000089869669120ANGELA CRISTINA DECIAN DE PELLEGRIN     JOSUE VITORINO DA SILVA                 00000000000 7988097000000                                                       000080
1AAA            AAB                            172303953      20170213 N B0910    00000000000002            0100000303953110170000000079583         KS241017000000000000000011010170000000003983000000000000000000000000001000089869669120ANGELA CRISTINA DECIAN DE PELLEGRIN     JOSUE VITORINO DA SILVA                 00000000000 7988097000000                                                       000081
1AAA            AAB                            172304666      20170213 N B1010    00000000000002            0100000304662802170000000104583         KS210217000000000000000012002170000000003983000000000000000000000000001000088635309987ELISANGELA NEGRAO AMORIM                OITO                                    00000000000 7981513000000                                                       000082
1AAA            AAB                            172304674      20170213 N B0210    00000000000002            0100000304673103170000000104583         KS240317000000000000000011003170000000003983000000000000000000000000001000088635309987ELISANGELA NEGRAO AMORIM                OITO                                    00000000000 7981513000000                                                       000083
1AAA            AAB                            172304682      20170213 N B0310    00000000000002            0100000304683004170000000104583         KS230417000000000000000011004170000000003983000000000000000000000000001000088635309987ELISANGELA NEGRAO AMORIM                OITO                                    00000000000 7981513000000                                                       000084
1AAA            AAB                            172304690      20170213 N B0410    00000000000002            0100000304693105170000000079583         KS240517000000000000000011005170000000003983000000000000000000000000001000088635309987ELISANGELA NEGRAO AMORIM                OITO                                    00000000000 7981513000000                                                       000085
1AAA            AAB                            172304704      20170213 N B0510    00000000000002            0100000304703006170000000079583         KS230617000000000000000011006170000000003983000000000000000000000000001000088635309987ELISANGELA NEGRAO AMORIM                OITO                                    00000000000 7981513000000                                                       000086
1AAA            AAB                            172304712      20170213 N B0610    00000000000002            0100000304713107170000000079583         KS240717000000000000000011007170000000003983000000000000000000000000001000088635309987ELISANGELA NEGRAO AMORIM                OITO                                    00000000000 7981513000000                                                       000087
1AAA            AAB                            172304720      20170213 N B0710    00000000000002            0100000304723108170000000079583         KS240817000000000000000011008170000000003983000000000000000000000000001000088635309987ELISANGELA NEGRAO AMORIM                OITO                                    00000000000 7981513000000                                                       000088
1AAA            AAB                            172304739      20170213 N B0810    00000000000002            0100000304733009170000000079583         KS230917000000000000000011009170000000003983000000000000000000000000001000088635309987ELISANGELA NEGRAO AMORIM                OITO                                    00000000000 7981513000000                                                       000089
1AAA            AAB                            172304747      20170213 N B0910    00000000000002            0100000304743110170000000079583         KS241017000000000000000011010170000000003983000000000000000000000000001000088635309987ELISANGELA NEGRAO AMORIM                OITO                                    00000000000 7981513000000                                                       000090
1AAA            AAB                            172304755      20170213 N B1010    00000000000002            0100000304753011170000000079583         KS231117000000000000000011011170000000003983000000000000000000000000001000088635309987ELISANGELA NEGRAO AMORIM                OITO                                    00000000000 7981513000000                                                       000091
1AAA            AAB                            172305166      20170213 N B1110    00000000000002            0100000305163101170000000110268         KS240117000000000000000011001170000000004268000000000000000000000000001000048992879172ROSEMAR JOSE HALL                       TAKEO  TAQUIMOTO                        00000000000 7982362000000                                                       000092
1AAA            AAB                            172305174      20170213 N B0110    00000000000002            0100000305172802170000000110268         KS210217000000000000000012002170000000004268000000000000000000000000001000048992879172ROSEMAR JOSE HALL                       TAKEO  TAQUIMOTO                        00000000000 7982362000000                                                       000093
1AAA            AAB                            172305182      20170213 N B0210    00000000000002            0100000305183103170000000110268         KS240317000000000000000011003170000000004268000000000000000000000000001000048992879172ROSEMAR JOSE HALL                       TAKEO  TAQUIMOTO                        00000000000 7982362000000                                                       000094
1AAA            AAB                            172305190      20170213 N B0310    00000000000002            0100000305193004170000000085268         KS230417000000000000000011004170000000004268000000000000000000000000001000048992879172ROSEMAR JOSE HALL                       TAKEO  TAQUIMOTO                        00000000000 7982362000000                                                       000095
1AAA            AAB                            172305204      20170213 N B0410    00000000000002            0100000305203105170000000085268         KS240517000000000000000011005170000000004268000000000000000000000000001000048992879172ROSEMAR JOSE HALL                       TAKEO  TAQUIMOTO                        00000000000 7982362000000                                                       000096
1AAA            AAB                            172305212      20170213 N B0510    00000000000002            0100000305213006170000000085268         KS230617000000000000000011006170000000004268000000000000000000000000001000048992879172ROSEMAR JOSE HALL                       TAKEO  TAQUIMOTO                        00000000000 7982362000000                                                       000097
1AAA            AAB                            172305220      20170213 N B0610    00000000000002            0100000305223107170000000085268         KS240717000000000000000011007170000000004268000000000000000000000000001000048992879172ROSEMAR JOSE HALL                       TAKEO  TAQUIMOTO                        00000000000 7982362000000                                                       000098
1AAA            AAB                            172305239      20170213 N B0710    00000000000002            0100000305233108170000000085268         KS240817000000000000000011008170000000004268000000000000000000000000001000048992879172ROSEMAR JOSE HALL                       TAKEO  TAQUIMOTO                        00000000000 7982362000000                                                       000099
1AAA            AAB                            172305247      20170213 N B0810    00000000000002            0100000305243009170000000085268         KS230917000000000000000011009170000000004268000000000000000000000000001000048992879172ROSEMAR JOSE HALL                       TAKEO  TAQUIMOTO                        00000000000 7982362000000                                                       000100
1AAA            AAB                            172305255      20170213 N B0910    00000000000002            0100000305253110170000000085268         KS241017000000000000000011010170000000004268000000000000000000000000001000048992879172ROSEMAR JOSE HALL                       TAKEO  TAQUIMOTO                        00000000000 7982362000000                                                       000101
1AAA            AAB                            172306162      20170213 N B1010    00000000000002            0100000306162802170000000104583         KS210217000000000000000012002170000000003983000000000000000000000000001000054270472120LUCIA INES FERREIRA SIMIAO LOPES        OLINDA PIRES DE ALMEIDA                 00000000000 7983103000000                                                       000102
1AAA            AAB                            172306170      20170213 N B0210    00000000000002            0100000306173103170000000104583         KS240317000000000000000011003170000000003983000000000000000000000000001000054270472120LUCIA INES FERREIRA SIMIAO LOPES        OLINDA PIRES DE ALMEIDA                 00000000000 7983103000000                                                       000103
1AAA            AAB                            172306189      20170213 N B0310    00000000000002            0100000306183004170000000104583         KS230417000000000000000011004170000000003983000000000000000000000000001000054270472120LUCIA INES FERREIRA SIMIAO LOPES        OLINDA PIRES DE ALMEIDA                 00000000000 7983103000000                                                       000104
1AAA            AAB                            172306197      20170213 N B0410    00000000000002            0100000306193105170000000079583         KS240517000000000000000011005170000000003983000000000000000000000000001000054270472120LUCIA INES FERREIRA SIMIAO LOPES        OLINDA PIRES DE ALMEIDA                 00000000000 7983103000000                                                       000105
1AAA            AAB                            172306200      20170213 N B0510    00000000000002            0100000306203006170000000079583         KS230617000000000000000011006170000000003983000000000000000000000000001000054270472120LUCIA INES FERREIRA SIMIAO LOPES        OLINDA PIRES DE ALMEIDA                 00000000000 7983103000000                                                       000106
1AAA            AAB                            172306219      20170213 N B0610    00000000000002            0100000306213107170000000079583         KS240717000000000000000011007170000000003983000000000000000000000000001000054270472120LUCIA INES FERREIRA SIMIAO LOPES        OLINDA PIRES DE ALMEIDA                 00000000000 7983103000000                                                       000107
1AAA            AAB                            172306227      20170213 N B0710    00000000000002            0100000306223108170000000079583         KS240817000000000000000011008170000000003983000000000000000000000000001000054270472120LUCIA INES FERREIRA SIMIAO LOPES        OLINDA PIRES DE ALMEIDA                 00000000000 7983103000000                                                       000108
1AAA            AAB                            172306235      20170213 N B0810    00000000000002            0100000306233009170000000079583         KS230917000000000000000011009170000000003983000000000000000000000000001000054270472120LUCIA INES FERREIRA SIMIAO LOPES        OLINDA PIRES DE ALMEIDA                 00000000000 7983103000000                                                       000109
1AAA            AAB                            172306243      20170213 N B0910    00000000000002            0100000306243110170000000079583         KS241017000000000000000011010170000000003983000000000000000000000000001000054270472120LUCIA INES FERREIRA SIMIAO LOPES        OLINDA PIRES DE ALMEIDA                 00000000000 7983103000000                                                       000110
1AAA            AAB                            172306251      20170213 N B1010    00000000000002            0100000306253011170000000079583         KS231117000000000000000011011170000000003983000000000000000000000000001000054270472120LUCIA INES FERREIRA SIMIAO LOPES        OLINDA PIRES DE ALMEIDA                 00000000000 7983103000000                                                       000111
1AAA            AAB                            172306863      20170213 N B1110    00000000000002            0100000306863101170000000104583         KS240117000000000000000011001170000000003983000000000000000000000000001000001026813174RAPHAEL TOMAZ MANZEPPE                  CANANEIA                                00000000000 7982628200000                                                       000112
1AAA            AAB                            172306871      20170213 N B0110    00000000000002            0100000306872802170000000104583         KS210217000000000000000012002170000000003983000000000000000000000000001000001026813174RAPHAEL TOMAZ MANZEPPE                  CANANEIA                                00000000000 7982628200000                                                       000113
1AAA            AAB                            172306880      20170213 N B0210    00000000000002            0100000306883103170000000104583         KS240317000000000000000011003170000000003983000000000000000000000000001000001026813174RAPHAEL TOMAZ MANZEPPE                  CANANEIA                                00000000000 7982628200000                                                       000114
1AAA            AAB                            172306898      20170213 N B0310    00000000000002            0100000306893004170000000079583         KS230417000000000000000011004170000000003983000000000000000000000000001000001026813174RAPHAEL TOMAZ MANZEPPE                  CANANEIA                                00000000000 7982628200000                                                       000115
1AAA            AAB                            172306901      20170213 N B0410    00000000000002            0100000306903105170000000079583         KS240517000000000000000011005170000000003983000000000000000000000000001000001026813174RAPHAEL TOMAZ MANZEPPE                  CANANEIA                                00000000000 7982628200000                                                       000116
1AAA            AAB                            172306910      20170213 N B0510    00000000000002            0100000306913006170000000079583         KS230617000000000000000011006170000000003983000000000000000000000000001000001026813174RAPHAEL TOMAZ MANZEPPE                  CANANEIA                                00000000000 7982628200000                                                       000117
1AAA            AAB                            172306928      20170213 N B0610    00000000000002            0100000306923107170000000079583         KS240717000000000000000011007170000000003983000000000000000000000000001000001026813174RAPHAEL TOMAZ MANZEPPE                  CANANEIA                                00000000000 7982628200000                                                       000118
1AAA            AAB                            172306936      20170213 N B0710    00000000000002            0100000306933108170000000079583         KS240817000000000000000011008170000000003983000000000000000000000000001000001026813174RAPHAEL TOMAZ MANZEPPE                  CANANEIA                                00000000000 7982628200000                                                       000119
1AAA            AAB                            172306944      20170213 N B0810    00000000000002            0100000306943009170000000079583         KS230917000000000000000011009170000000003983000000000000000000000000001000001026813174RAPHAEL TOMAZ MANZEPPE                  CANANEIA                                00000000000 7982628200000                                                       000120
1AAA            AAB                            172306952      20170213 N B0910    00000000000002            0100000306953110170000000079583         KS241017000000000000000011010170000000003983000000000000000000000000001000001026813174RAPHAEL TOMAZ MANZEPPE                  CANANEIA                                00000000000 7982628200000                                                       000121
1AAA            AAB                            172303368      20170213 N B1010    00000000000002            0100000303362802170000000093214         KS210217000000000000000012002170000000003414000000000000000000000000001000057252386104HENRIQUE GERALDO RODRIGUES              JOAO CARNEIRO ALVES                     00000000000 7981109000000                                                       000122
1AAA            AAB                            172303376      20170213 N B0210    00000000000002            0100000303373103170000000093214         KS240317000000000000000011003170000000003414000000000000000000000000001000057252386104HENRIQUE GERALDO RODRIGUES              JOAO CARNEIRO ALVES                     00000000000 7981109000000                                                       000123
1AAA            AAB                            172303384      20170213 N B0310    00000000000002            0100000303383004170000000093214         KS230417000000000000000011004170000000003414000000000000000000000000001000057252386104HENRIQUE GERALDO RODRIGUES              JOAO CARNEIRO ALVES                     00000000000 7981109000000                                                       000124
1AAA            AAB                            172303392      20170213 N B0410    00000000000002            0100000303393105170000000068214         KS240517000000000000000011005170000000003414000000000000000000000000001000057252386104HENRIQUE GERALDO RODRIGUES              JOAO CARNEIRO ALVES                     00000000000 7981109000000                                                       000125
1AAA            AAB                            172303406      20170213 N B0510    00000000000002            0100000303403006170000000068214         KS230617000000000000000011006170000000003414000000000000000000000000001000057252386104HENRIQUE GERALDO RODRIGUES              JOAO CARNEIRO ALVES                     00000000000 7981109000000                                                       000126
1AAA            AAB                            172303414      20170213 N B0610    00000000000002            0100000303413107170000000068214         KS240717000000000000000011007170000000003414000000000000000000000000001000057252386104HENRIQUE GERALDO RODRIGUES              JOAO CARNEIRO ALVES                     00000000000 7981109000000                                                       000127
1AAA            AAB                            172303422      20170213 N B0710    00000000000002            0100000303423108170000000068214         KS240817000000000000000011008170000000003414000000000000000000000000001000057252386104HENRIQUE GERALDO RODRIGUES              JOAO CARNEIRO ALVES                     00000000000 7981109000000                                                       000128
1AAA            AAB                            172303430      20170213 N B0810    00000000000002            0100000303433009170000000068214         KS230917000000000000000011009170000000003414000000000000000000000000001000057252386104HENRIQUE GERALDO RODRIGUES              JOAO CARNEIRO ALVES                     00000000000 7981109000000                                                       000129
1AAA            AAB                            172303449      20170213 N B0910    00000000000002            0100000303443110170000000068214         KS241017000000000000000011010170000000003414000000000000000000000000001000057252386104HENRIQUE GERALDO RODRIGUES              JOAO CARNEIRO ALVES                     00000000000 7981109000000                                                       000130
1AAA            AAB                            172303457      20170213 N B1010    00000000000002            0100000303453011170000000068214         KS231117000000000000000011011170000000003414000000000000000000000000001000057252386104HENRIQUE GERALDO RODRIGUES              JOAO CARNEIRO ALVES                     00000000000 7981109000000                                                       000131
1AAA            AAB                            172306367      20170213 N B1110    00000000000002            0100000306362802170000000104583         KS210217000000000000000012002170000000003983000000000000000000000000001000047543582104LUCIO FERREIRA SIMIAO                   MUSTAFA                                 00000000000 7982346900000                                                       000132
1AAA            AAB                            172306375      20170213 N B0210    00000000000002            0100000306373103170000000104583         KS240317000000000000000011003170000000003983000000000000000000000000001000047543582104LUCIO FERREIRA SIMIAO                   MUSTAFA                                 00000000000 7982346900000                                                       000133
1AAA            AAB                            172306383      20170213 N B0310    00000000000002            0100000306383004170000000104583         KS230417000000000000000011004170000000003983000000000000000000000000001000047543582104LUCIO FERREIRA SIMIAO                   MUSTAFA                                 00000000000 7982346900000                                                       000134
1AAA            AAB                            172306391      20170213 N B0410    00000000000002            0100000306393105170000000079583         KS240517000000000000000011005170000000003983000000000000000000000000001000047543582104LUCIO FERREIRA SIMIAO                   MUSTAFA                                 00000000000 7982346900000                                                       000135
1AAA            AAB                            172306405      20170213 N B0510    00000000000002            0100000306403006170000000079583         KS230617000000000000000011006170000000003983000000000000000000000000001000047543582104LUCIO FERREIRA SIMIAO                   MUSTAFA                                 00000000000 7982346900000                                                       000136
1AAA            AAB                            172306413      20170213 N B0610    00000000000002            0100000306413107170000000079583         KS240717000000000000000011007170000000003983000000000000000000000000001000047543582104LUCIO FERREIRA SIMIAO                   MUSTAFA                                 00000000000 7982346900000                                                       000137
1AAA            AAB                            172306421      20170213 N B0710    00000000000002            0100000306423108170000000079583         KS240817000000000000000011008170000000003983000000000000000000000000001000047543582104LUCIO FERREIRA SIMIAO                   MUSTAFA                                 00000000000 7982346900000                                                       000138
1AAA            AAB                            172306430      20170213 N B0810    00000000000002            0100000306433009170000000079583         KS230917000000000000000011009170000000003983000000000000000000000000001000047543582104LUCIO FERREIRA SIMIAO                   MUSTAFA                                 00000000000 7982346900000                                                       000139
1AAA            AAB                            172306448      20170213 N B0910    00000000000002            0100000306443110170000000079583         KS241017000000000000000011010170000000003983000000000000000000000000001000047543582104LUCIO FERREIRA SIMIAO                   MUSTAFA                                 00000000000 7982346900000                                                       000140
1AAA            AAB                            172306456      20170213 N B1010    00000000000002            0100000306453011170000000079583         KS231117000000000000000011011170000000003983000000000000000000000000001000047543582104LUCIO FERREIRA SIMIAO                   MUSTAFA                                 00000000000 7982346900000                                                       000141
1AAA            AAB                            172306561      20170213 N B1110    00000000000002            0100000306563101170000000081845         KS240117000000000000000011001170000000002845000000000000000000000000001000051827484187LUZIA CARVALHO COSTA SANTOS             CELSO JOAQUIM DE BARROS                 00000000000 7970097000000                                                       000142
1AAA            AAB                            172306570      20170213 N B0110    00000000000002            0100000306572802170000000081845         KS210217000000000000000012002170000000002845000000000000000000000000001000051827484187LUZIA CARVALHO COSTA SANTOS             CELSO JOAQUIM DE BARROS                 00000000000 7970097000000                                                       000143
1AAA            AAB                            172306588      20170213 N B0210    00000000000002            0100000306583103170000000081845         KS240317000000000000000011003170000000002845000000000000000000000000001000051827484187LUZIA CARVALHO COSTA SANTOS             CELSO JOAQUIM DE BARROS                 00000000000 7970097000000                                                       000144
1AAA            AAB                            172306596      20170213 N B0310    00000000000002            0100000306593004170000000056845         KS230417000000000000000011004170000000002845000000000000000000000000001000051827484187LUZIA CARVALHO COSTA SANTOS             CELSO JOAQUIM DE BARROS                 00000000000 7970097000000                                                       000145
1AAA            AAB                            172306600      20170213 N B0410    00000000000002            0100000306603105170000000056845         KS240517000000000000000011005170000000002845000000000000000000000000001000051827484187LUZIA CARVALHO COSTA SANTOS             CELSO JOAQUIM DE BARROS                 00000000000 7970097000000                                                       000146
1AAA            AAB                            172306618      20170213 N B0510    00000000000002            0100000306613006170000000056845         KS230617000000000000000011006170000000002845000000000000000000000000001000051827484187LUZIA CARVALHO COSTA SANTOS             CELSO JOAQUIM DE BARROS                 00000000000 7970097000000                                                       000147
1AAA            AAB                            172306626      20170213 N B0610    00000000000002            0100000306623107170000000056845         KS240717000000000000000011007170000000002845000000000000000000000000001000051827484187LUZIA CARVALHO COSTA SANTOS             CELSO JOAQUIM DE BARROS                 00000000000 7970097000000                                                       000148
1AAA            AAB                            172306634      20170213 N B0710    00000000000002            0100000306633108170000000056845         KS240817000000000000000011008170000000002845000000000000000000000000001000051827484187LUZIA CARVALHO COSTA SANTOS             CELSO JOAQUIM DE BARROS                 00000000000 7970097000000                                                       000149
1AAA            AAB                            172306642      20170213 N B0810    00000000000002            0100000306643009170000000056845         KS230917000000000000000011009170000000002845000000000000000000000000001000051827484187LUZIA CARVALHO COSTA SANTOS             CELSO JOAQUIM DE BARROS                 00000000000 7970097000000                                                       000150
1AAA            AAB                            172306650      20170213 N B0910    00000000000002            0100000306653110170000000056845         KS241017000000000000000011010170000000002845000000000000000000000000001000051827484187LUZIA CARVALHO COSTA SANTOS             CELSO JOAQUIM DE BARROS                 00000000000 7970097000000                                                       000151
1AAA            AAB                            172309064      20170213 N B1010    00000000000002            0100000309063101170000000081845         KS240117000000000000000011001170000000002845000000000000000000000000001000036615315149IVETE DE FATIMA VERISSIMO MONCAO        BELO HORIZONTE                          00000000000 7981442000000                                                       000152
1AAA            AAB                            172309072      20170213 N B0110    00000000000002            0100000309072802170000000081845         KS210217000000000000000012002170000000002845000000000000000000000000001000036615315149IVETE DE FATIMA VERISSIMO MONCAO        BELO HORIZONTE                          00000000000 7981442000000                                                       000153
1AAA            AAB                            172309080      20170213 N B0210    00000000000002            0100000309083103170000000081845         KS240317000000000000000011003170000000002845000000000000000000000000001000036615315149IVETE DE FATIMA VERISSIMO MONCAO        BELO HORIZONTE                          00000000000 7981442000000                                                       000154
1AAA            AAB                            172309099      20170213 N B0310    00000000000002            0100000309093004170000000056845         KS230417000000000000000011004170000000002845000000000000000000000000001000036615315149IVETE DE FATIMA VERISSIMO MONCAO        BELO HORIZONTE                          00000000000 7981442000000                                                       000155
1AAA            AAB                            172309102      20170213 N B0410    00000000000002            0100000309103105170000000056845         KS240517000000000000000011005170000000002845000000000000000000000000001000036615315149IVETE DE FATIMA VERISSIMO MONCAO        BELO HORIZONTE                          00000000000 7981442000000                                                       000156
1AAA            AAB                            172309110      20170213 N B0510    00000000000002            0100000309113006170000000056845         KS230617000000000000000011006170000000002845000000000000000000000000001000036615315149IVETE DE FATIMA VERISSIMO MONCAO        BELO HORIZONTE                          00000000000 7981442000000                                                       000157
1AAA            AAB                            172309129      20170213 N B0610    00000000000002            0100000309123107170000000056845         KS240717000000000000000011007170000000002845000000000000000000000000001000036615315149IVETE DE FATIMA VERISSIMO MONCAO        BELO HORIZONTE                          00000000000 7981442000000                                                       000158
1AAA            AAB                            172309137      20170213 N B0710    00000000000002            0100000309133108170000000056845         KS240817000000000000000011008170000000002845000000000000000000000000001000036615315149IVETE DE FATIMA VERISSIMO MONCAO        BELO HORIZONTE                          00000000000 7981442000000                                                       000159
1AAA            AAB                            172309145      20170213 N B0810    00000000000002            0100000309143009170000000056845         KS230917000000000000000011009170000000002845000000000000000000000000001000036615315149IVETE DE FATIMA VERISSIMO MONCAO        BELO HORIZONTE                          00000000000 7981442000000                                                       000160
1AAA            AAB                            172309153      20170213 N B0910    00000000000002            0100000309153110170000000056845         KS241017000000000000000011010170000000002845000000000000000000000000001000036615315149IVETE DE FATIMA VERISSIMO MONCAO        BELO HORIZONTE                          00000000000 7981442000000                                                       000161
1AAA            AAB                            172304860      20170213 N B1010    00000000000002            0100000304863101170000000104583         KS240117000000000000000011001170000000003983000000000000000000000000001000002164295102GIOVANI SANTANA DE SOUZA                PROJETADA B                             00000000000 7984111000000                                                       000162
1AAA            AAB                            172304879      20170213 N B0110    00000000000002            0100000304872802170000000104583         KS210217000000000000000012002170000000003983000000000000000000000000001000002164295102GIOVANI SANTANA DE SOUZA                PROJETADA B                             00000000000 7984111000000                                                       000163
1AAA            AAB                            172304887      20170213 N B0210    00000000000002            0100000304883103170000000104583         KS240317000000000000000011003170000000003983000000000000000000000000001000002164295102GIOVANI SANTANA DE SOUZA                PROJETADA B                             00000000000 7984111000000                                                       000164
1AAA            AAB                            172304895      20170213 N B0310    00000000000002            0100000304893004170000000079583         KS230417000000000000000011004170000000003983000000000000000000000000001000002164295102GIOVANI SANTANA DE SOUZA                PROJETADA B                             00000000000 7984111000000                                                       000165
1AAA            AAB                            172304909      20170213 N B0410    00000000000002            0100000304903105170000000079583         KS240517000000000000000011005170000000003983000000000000000000000000001000002164295102GIOVANI SANTANA DE SOUZA                PROJETADA B                             00000000000 7984111000000                                                       000166
1AAA            AAB                            172304917      20170213 N B0510    00000000000002            0100000304913006170000000079583         KS230617000000000000000011006170000000003983000000000000000000000000001000002164295102GIOVANI SANTANA DE SOUZA                PROJETADA B                             00000000000 7984111000000                                                       000167
1AAA            AAB                            172304925      20170213 N B0610    00000000000002            0100000304923107170000000079583         KS240717000000000000000011007170000000003983000000000000000000000000001000002164295102GIOVANI SANTANA DE SOUZA                PROJETADA B                             00000000000 7984111000000                                                       000168
1AAA            AAB                            172304933      20170213 N B0710    00000000000002            0100000304933108170000000079583         KS240817000000000000000011008170000000003983000000000000000000000000001000002164295102GIOVANI SANTANA DE SOUZA                PROJETADA B                             00000000000 7984111000000                                                       000169
1AAA            AAB                            172304941      20170213 N B0810    00000000000002            0100000304943009170000000079583         KS230917000000000000000011009170000000003983000000000000000000000000001000002164295102GIOVANI SANTANA DE SOUZA                PROJETADA B                             00000000000 7984111000000                                                       000170
1AAA            AAB                            172304950      20170213 N B0910    00000000000002            0100000304953110170000000079583         KS241017000000000000000011010170000000003983000000000000000000000000001000002164295102GIOVANI SANTANA DE SOUZA                PROJETADA B                             00000000000 7984111000000                                                       000171
1AAA            AAB                            172308661      20170213 N B1010    00000000000002            0100000308663101170000000104583         KS240117000000000000000011001170000000003983000000000000000000000000001000059951311920ELOISA MARIA ZAGO                       VALDOMIRO MACIEL                        00000000000 7998510000000                                                       000172
1AAA            AAB                            172308670      20170213 N B0110    00000000000002            0100000308672802170000000104583         KS210217000000000000000012002170000000003983000000000000000000000000001000059951311920ELOISA MARIA ZAGO                       VALDOMIRO MACIEL                        00000000000 7998510000000                                                       000173
1AAA            AAB                            172308688      20170213 N B0210    00000000000002            0100000308683103170000000104583         KS240317000000000000000011003170000000003983000000000000000000000000001000059951311920ELOISA MARIA ZAGO                       VALDOMIRO MACIEL                        00000000000 7998510000000                                                       000174
1AAA            AAB                            172308696      20170213 N B0310    00000000000002            0100000308693004170000000079583         KS230417000000000000000011004170000000003983000000000000000000000000001000059951311920ELOISA MARIA ZAGO                       VALDOMIRO MACIEL                        00000000000 7998510000000                                                       000175
1AAA            AAB                            172308700      20170213 N B0410    00000000000002            0100000308703105170000000079583         KS240517000000000000000011005170000000003983000000000000000000000000001000059951311920ELOISA MARIA ZAGO                       VALDOMIRO MACIEL                        00000000000 7998510000000                                                       000176
1AAA            AAB                            172308718      20170213 N B0510    00000000000002            0100000308713006170000000079583         KS230617000000000000000011006170000000003983000000000000000000000000001000059951311920ELOISA MARIA ZAGO                       VALDOMIRO MACIEL                        00000000000 7998510000000                                                       000177
1AAA            AAB                            172308726      20170213 N B0610    00000000000002            0100000308723107170000000079583         KS240717000000000000000011007170000000003983000000000000000000000000001000059951311920ELOISA MARIA ZAGO                       VALDOMIRO MACIEL                        00000000000 7998510000000                                                       000178
1AAA            AAB                            172308734      20170213 N B0710    00000000000002            0100000308733108170000000079583         KS240817000000000000000011008170000000003983000000000000000000000000001000059951311920ELOISA MARIA ZAGO                       VALDOMIRO MACIEL                        00000000000 7998510000000                                                       000179
1AAA            AAB                            172308742      20170213 N B0810    00000000000002            0100000308743009170000000079583         KS230917000000000000000011009170000000003983000000000000000000000000001000059951311920ELOISA MARIA ZAGO                       VALDOMIRO MACIEL                        00000000000 7998510000000                                                       000180
1AAA            AAB                            172308750      20170213 N B0910    00000000000002            0100000308753110170000000079583         KS241017000000000000000011010170000000003983000000000000000000000000001000059951311920ELOISA MARIA ZAGO                       VALDOMIRO MACIEL                        00000000000 7998510000000                                                       000181
1AAA            AAB                            172302760      20170213 N B1010    00000000000002            0100000302763101170000000093214         KS240117000000000000000011001170000000003414000000000000000000000000001000053076389904ELENIR HEINDRICKSON                     ANTONIO BARBOSA                         00000000000 7970097000000                                                       000182
1AAA            AAB                            172302779      20170213 N B0110    00000000000002            0100000302772802170000000093214         KS210217000000000000000012002170000000003414000000000000000000000000001000053076389904ELENIR HEINDRICKSON                     ANTONIO BARBOSA                         00000000000 7970097000000                                                       000183
1AAA            AAB                            172302787      20170213 N B0210    00000000000002            0100000302783103170000000093214         KS240317000000000000000011003170000000003414000000000000000000000000001000053076389904ELENIR HEINDRICKSON                     ANTONIO BARBOSA                         00000000000 7970097000000                                                       000184
1AAA            AAB                            172302795      20170213 N B0310    00000000000002            0100000302793004170000000068214         KS230417000000000000000011004170000000003414000000000000000000000000001000053076389904ELENIR HEINDRICKSON                     ANTONIO BARBOSA                         00000000000 7970097000000                                                       000185
1AAA            AAB                            172302809      20170213 N B0410    00000000000002            0100000302803105170000000068214         KS240517000000000000000011005170000000003414000000000000000000000000001000053076389904ELENIR HEINDRICKSON                     ANTONIO BARBOSA                         00000000000 7970097000000                                                       000186
1AAA            AAB                            172302817      20170213 N B0510    00000000000002            0100000302813006170000000068214         KS230617000000000000000011006170000000003414000000000000000000000000001000053076389904ELENIR HEINDRICKSON                     ANTONIO BARBOSA                         00000000000 7970097000000                                                       000187
1AAA            AAB                            172302825      20170213 N B0610    00000000000002            0100000302823107170000000068214         KS240717000000000000000011007170000000003414000000000000000000000000001000053076389904ELENIR HEINDRICKSON                     ANTONIO BARBOSA                         00000000000 7970097000000                                                       000188
1AAA            AAB                            172302833      20170213 N B0710    00000000000002            0100000302833108170000000068214         KS240817000000000000000011008170000000003414000000000000000000000000001000053076389904ELENIR HEINDRICKSON                     ANTONIO BARBOSA                         00000000000 7970097000000                                                       000189
1AAA            AAB                            172302841      20170213 N B0810    00000000000002            0100000302843009170000000068214         KS230917000000000000000011009170000000003414000000000000000000000000001000053076389904ELENIR HEINDRICKSON                     ANTONIO BARBOSA                         00000000000 7970097000000                                                       000190
1AAA            AAB                            172302850      20170213 N B0910    00000000000002            0100000302853110170000000068214         KS241017000000000000000011010170000000003414000000000000000000000000001000053076389904ELENIR HEINDRICKSON                     ANTONIO BARBOSA                         00000000000 7970097000000                                                       000191
1AAA            AAB                            172309676      20170213 N B1010    00000000000002            0100000309673101170000000081845         KS240117000000000000000011001170000000002845000000000000000000000000001000036650854115ANGELA APARECIDA TORRES RODRIGUES MAZARIJOAO VICENTE FERREIRA                   00000000000 7983006000000                                                       000192
1AAA            AAB                            172309684      20170213 N B0110    00000000000002            0100000309682802170000000081845         KS210217000000000000000012002170000000002845000000000000000000000000001000036650854115ANGELA APARECIDA TORRES RODRIGUES MAZARIJOAO VICENTE FERREIRA                   00000000000 7983006000000                                                       000193
1AAA            AAB                            172309692      20170213 N B0210    00000000000002            0100000309693103170000000081845         KS240317000000000000000011003170000000002845000000000000000000000000001000036650854115ANGELA APARECIDA TORRES RODRIGUES MAZARIJOAO VICENTE FERREIRA                   00000000000 7983006000000                                                       000194
1AAA            AAB                            172309706      20170213 N B0310    00000000000002            0100000309703004170000000081845         KS230417000000000000000011004170000000002845000000000000000000000000001000036650854115ANGELA APARECIDA TORRES RODRIGUES MAZARIJOAO VICENTE FERREIRA                   00000000000 7983006000000                                                       000195
1AAA            AAB                            172309714      20170213 N B0410    00000000000002            0100000309713105170000000056845         KS240517000000000000000011005170000000002845000000000000000000000000001000036650854115ANGELA APARECIDA TORRES RODRIGUES MAZARIJOAO VICENTE FERREIRA                   00000000000 7983006000000                                                       000196
1AAA            AAB                            172309722      20170213 N B0510    00000000000002            0100000309723006170000000056845         KS230617000000000000000011006170000000002845000000000000000000000000001000036650854115ANGELA APARECIDA TORRES RODRIGUES MAZARIJOAO VICENTE FERREIRA                   00000000000 7983006000000                                                       000197
1AAA            AAB                            172309730      20170213 N B0610    00000000000002            0100000309733107170000000056845         KS240717000000000000000011007170000000002845000000000000000000000000001000036650854115ANGELA APARECIDA TORRES RODRIGUES MAZARIJOAO VICENTE FERREIRA                   00000000000 7983006000000                                                       000198
1AAA            AAB                            172309749      20170213 N B0710    00000000000002            0100000309743108170000000056845         KS240817000000000000000011008170000000002845000000000000000000000000001000036650854115ANGELA APARECIDA TORRES RODRIGUES MAZARIJOAO VICENTE FERREIRA                   00000000000 7983006000000                                                       000199
1AAA            AAB                            172309757      20170213 N B0810    00000000000002            0100000309753009170000000056845         KS230917000000000000000011009170000000002845000000000000000000000000001000036650854115ANGELA APARECIDA TORRES RODRIGUES MAZARIJOAO VICENTE FERREIRA                   00000000000 7983006000000                                                       000200
1AAA            AAB                            172309765      20170213 N B0910    00000000000002            0100000309763110170000000056845         KS241017000000000000000011010170000000002845000000000000000000000000001000036650854115ANGELA APARECIDA TORRES RODRIGUES MAZARIJOAO VICENTE FERREIRA                   00000000000 7983006000000                                                       000201
1AAA            AAB                            172307363      20170213 N B1010    00000000000002            0100000307362802170000000081845         KS210217000000000000000012002170000000002845000000000000000000000000001000078487076115SUELI SANTI MELLO                       PAISANDU                                00000000000 7984102000000                                                       000202
1AAA            AAB                            172307371      20170213 N B0210    00000000000002            0100000307373103170000000081845         KS240317000000000000000011003170000000002845000000000000000000000000001000078487076115SUELI SANTI MELLO                       PAISANDU                                00000000000 7984102000000                                                       000203
1AAA            AAB                            172307380      20170213 N B0310    00000000000002            0100000307383004170000000081845         KS230417000000000000000011004170000000002845000000000000000000000000001000078487076115SUELI SANTI MELLO                       PAISANDU                                00000000000 7984102000000                                                       000204
1AAA            AAB                            172307398      20170213 N B0410    00000000000002            0100000307393105170000000056845         KS240517000000000000000011005170000000002845000000000000000000000000001000078487076115SUELI SANTI MELLO                       PAISANDU                                00000000000 7984102000000                                                       000205
1AAA            AAB                            172307401      20170213 N B0510    00000000000002            0100000307403006170000000056845         KS230617000000000000000011006170000000002845000000000000000000000000001000078487076115SUELI SANTI MELLO                       PAISANDU                                00000000000 7984102000000                                                       000206
1AAA            AAB                            172307410      20170213 N B0610    00000000000002            0100000307413107170000000056845         KS240717000000000000000011007170000000002845000000000000000000000000001000078487076115SUELI SANTI MELLO                       PAISANDU                                00000000000 7984102000000                                                       000207
1AAA            AAB                            172307428      20170213 N B0710    00000000000002            0100000307423108170000000056845         KS240817000000000000000011008170000000002845000000000000000000000000001000078487076115SUELI SANTI MELLO                       PAISANDU                                00000000000 7984102000000                                                       000208
1AAA            AAB                            172307436      20170213 N B0810    00000000000002            0100000307433009170000000056845         KS230917000000000000000011009170000000002845000000000000000000000000001000078487076115SUELI SANTI MELLO                       PAISANDU                                00000000000 7984102000000                                                       000209
1AAA            AAB                            172307444      20170213 N B0910    00000000000002            0100000307443110170000000056845         KS241017000000000000000011010170000000002845000000000000000000000000001000078487076115SUELI SANTI MELLO                       PAISANDU                                00000000000 7984102000000                                                       000210
1AAA            AAB                            172307452      20170213 N B1010    00000000000002            0100000307453011170000000056845         KS231117000000000000000011011170000000002845000000000000000000000000001000078487076115SUELI SANTI MELLO                       PAISANDU                                00000000000 7984102000000                                                       000211
1AAA            AAB                            172308467      20170213 N B1110    00000000000002            0100000308462802170000000104583         KS210217000000000000000012002170000000003983000000000000000000000000001000039115488187IVONE CAETANO DA SILVA RODRIGUES        DOS NAMORADOS                           00000000000 7989000000000                                                       000212
1AAA            AAB                            172308475      20170213 N B0210    00000000000002            0100000308473103170000000104583         KS240317000000000000000011003170000000003983000000000000000000000000001000039115488187IVONE CAETANO DA SILVA RODRIGUES        DOS NAMORADOS                           00000000000 7989000000000                                                       000213
1AAA            AAB                            172308483      20170213 N B0310    00000000000002            0100000308483004170000000104583         KS230417000000000000000011004170000000003983000000000000000000000000001000039115488187IVONE CAETANO DA SILVA RODRIGUES        DOS NAMORADOS                           00000000000 7989000000000                                                       000214
1AAA            AAB                            172308491      20170213 N B0410    00000000000002            0100000308493105170000000079583         KS240517000000000000000011005170000000003983000000000000000000000000001000039115488187IVONE CAETANO DA SILVA RODRIGUES        DOS NAMORADOS                           00000000000 7989000000000                                                       000215
1AAA            AAB                            172308505      20170213 N B0510    00000000000002            0100000308503006170000000079583         KS230617000000000000000011006170000000003983000000000000000000000000001000039115488187IVONE CAETANO DA SILVA RODRIGUES        DOS NAMORADOS                           00000000000 7989000000000                                                       000216
1AAA            AAB                            172308513      20170213 N B0610    00000000000002            0100000308513107170000000079583         KS240717000000000000000011007170000000003983000000000000000000000000001000039115488187IVONE CAETANO DA SILVA RODRIGUES        DOS NAMORADOS                           00000000000 7989000000000                                                       000217
1AAA            AAB                            172308521      20170213 N B0710    00000000000002            0100000308523108170000000079583         KS240817000000000000000011008170000000003983000000000000000000000000001000039115488187IVONE CAETANO DA SILVA RODRIGUES        DOS NAMORADOS                           00000000000 7989000000000                                                       000218
1AAA            AAB                            172308530      20170213 N B0810    00000000000002            0100000308533009170000000079583         KS230917000000000000000011009170000000003983000000000000000000000000001000039115488187IVONE CAETANO DA SILVA RODRIGUES        DOS NAMORADOS                           00000000000 7989000000000                                                       000219
1AAA            AAB                            172308548      20170213 N B0910    00000000000002            0100000308543110170000000079583         KS241017000000000000000011010170000000003983000000000000000000000000001000039115488187IVONE CAETANO DA SILVA RODRIGUES        DOS NAMORADOS                           00000000000 7989000000000                                                       000220
1AAA            AAB                            172308556      20170213 N B1010    00000000000002            0100000308553011170000000079583         KS231117000000000000000011011170000000003983000000000000000000000000001000039115488187IVONE CAETANO DA SILVA RODRIGUES        DOS NAMORADOS                           00000000000 7989000000000                                                       000221
1AAA            AAB                            172304364      20170213 N B1110    00000000000002            0100000304362802170000000115952         KS210217000000000000000012002170000000004552000000000000000000000000001000068851062115ENI ZANDONADI                           GENARIO COSTA MATOS                     00000000000 7979097000000                                                       000222
1AAA            AAB                            172304372      20170213 N B0210    00000000000002            0100000304373103170000000115952         KS240317000000000000000011003170000000004552000000000000000000000000001000068851062115ENI ZANDONADI                           GENARIO COSTA MATOS                     00000000000 7979097000000                                                       000223
1AAA            AAB                            172304380      20170213 N B0310    00000000000002            0100000304383004170000000115952         KS230417000000000000000011004170000000004552000000000000000000000000001000068851062115ENI ZANDONADI                           GENARIO COSTA MATOS                     00000000000 7979097000000                                                       000224
1AAA            AAB                            172304399      20170213 N B0410    00000000000002            0100000304393105170000000090952         KS240517000000000000000011005170000000004552000000000000000000000000001000068851062115ENI ZANDONADI                           GENARIO COSTA MATOS                     00000000000 7979097000000                                                       000225
1AAA            AAB                            172304402      20170213 N B0510    00000000000002            0100000304403006170000000090952         KS230617000000000000000011006170000000004552000000000000000000000000001000068851062115ENI ZANDONADI                           GENARIO COSTA MATOS                     00000000000 7979097000000                                                       000226
1AAA            AAB                            172304410      20170213 N B0610    00000000000002            0100000304413107170000000090952         KS240717000000000000000011007170000000004552000000000000000000000000001000068851062115ENI ZANDONADI                           GENARIO COSTA MATOS                     00000000000 7979097000000                                                       000227
1AAA            AAB                            172304429      20170213 N B0710    00000000000002            0100000304423108170000000090952         KS240817000000000000000011008170000000004552000000000000000000000000001000068851062115ENI ZANDONADI                           GENARIO COSTA MATOS                     00000000000 7979097000000                                                       000228
1AAA            AAB                            172304437      20170213 N B0810    00000000000002            0100000304433009170000000090952         KS230917000000000000000011009170000000004552000000000000000000000000001000068851062115ENI ZANDONADI                           GENARIO COSTA MATOS                     00000000000 7979097000000                                                       000229
1AAA            AAB                            172304445      20170213 N B0910    00000000000002            0100000304443110170000000090952         KS241017000000000000000011010170000000004552000000000000000000000000001000068851062115ENI ZANDONADI                           GENARIO COSTA MATOS                     00000000000 7979097000000                                                       000230
1AAA            AAB                            172304453      20170213 N B1010    00000000000002            0100000304453011170000000090952         KS231117000000000000000011011170000000004552000000000000000000000000001000068851062115ENI ZANDONADI                           GENARIO COSTA MATOS                     00000000000 7979097000000                                                       000231
1AAA            AAB                            172307665      20170213 N B1110    00000000000002            0100000307663101170000000115952         KS240117000000000000000011001170000000004552000000000000000000000000001000032279353172ALZIRA ALVES MIRANDA                    VLADEMIRO DO AMARAL                     00000000000 7981402200000                                                       000232
1AAA            AAB                            172307673      20170213 N B0110    00000000000002            0100000307672802170000000115952         KS210217000000000000000012002170000000004552000000000000000000000000001000032279353172ALZIRA ALVES MIRANDA                    VLADEMIRO DO AMARAL                     00000000000 7981402200000                                                       000233
1AAA            AAB                            172307681      20170213 N B0210    00000000000002            0100000307683103170000000115952         KS240317000000000000000011003170000000004552000000000000000000000000001000032279353172ALZIRA ALVES MIRANDA                    VLADEMIRO DO AMARAL                     00000000000 7981402200000                                                       000234
1AAA            AAB                            172307690      20170213 N B0310    00000000000002            0100000307693004170000000090952         KS230417000000000000000011004170000000004552000000000000000000000000001000032279353172ALZIRA ALVES MIRANDA                    VLADEMIRO DO AMARAL                     00000000000 7981402200000                                                       000235
1AAA            AAB                            172307703      20170213 N B0410    00000000000002            0100000307703105170000000090952         KS240517000000000000000011005170000000004552000000000000000000000000001000032279353172ALZIRA ALVES MIRANDA                    VLADEMIRO DO AMARAL                     00000000000 7981402200000                                                       000236
1AAA            AAB                            172307711      20170213 N B0510    00000000000002            0100000307713006170000000090952         KS230617000000000000000011006170000000004552000000000000000000000000001000032279353172ALZIRA ALVES MIRANDA                    VLADEMIRO DO AMARAL                     00000000000 7981402200000                                                       000237
1AAA            AAB                            172307720      20170213 N B0610    00000000000002            0100000307723107170000000090952         KS240717000000000000000011007170000000004552000000000000000000000000001000032279353172ALZIRA ALVES MIRANDA                    VLADEMIRO DO AMARAL                     00000000000 7981402200000                                                       000238
1AAA            AAB                            172307738      20170213 N B0710    00000000000002            0100000307733108170000000090952         KS240817000000000000000011008170000000004552000000000000000000000000001000032279353172ALZIRA ALVES MIRANDA                    VLADEMIRO DO AMARAL                     00000000000 7981402200000                                                       000239
1AAA            AAB                            172307746      20170213 N B0810    00000000000002            0100000307743009170000000090952         KS230917000000000000000011009170000000004552000000000000000000000000001000032279353172ALZIRA ALVES MIRANDA                    VLADEMIRO DO AMARAL                     00000000000 7981402200000                                                       000240
1AAA            AAB                            172307754      20170213 N B0910    00000000000002            0100000307753110170000000090952         KS241017000000000000000011010170000000004552000000000000000000000000001000032279353172ALZIRA ALVES MIRANDA                    VLADEMIRO DO AMARAL                     00000000000 7981402200000                                                       000241
1AAA            AAB                            172308165      20170213 N B1010    00000000000002            0100000308162802170000000110268         KS210217000000000000000012002170000000004268000000000000000000000000001000006138566190MILENA ISERNHAGEN SCHAEDLER             CAMILO ERMELINDO DA SILVA               00000000000 7980601000000                                                       000242
1AAA            AAB                            172308173      20170213 N B0210    00000000000002            0100000308173103170000000110268         KS240317000000000000000011003170000000004268000000000000000000000000001000006138566190MILENA ISERNHAGEN SCHAEDLER             CAMILO ERMELINDO DA SILVA               00000000000 7980601000000                                                       000243
1AAA            AAB                            172308181      20170213 N B0310    00000000000002            0100000308183004170000000110268         KS230417000000000000000011004170000000004268000000000000000000000000001000006138566190MILENA ISERNHAGEN SCHAEDLER             CAMILO ERMELINDO DA SILVA               00000000000 7980601000000                                                       000244
1AAA            AAB                            172308190      20170213 N B0410    00000000000002            0100000308193105170000000085268         KS240517000000000000000011005170000000004268000000000000000000000000001000006138566190MILENA ISERNHAGEN SCHAEDLER             CAMILO ERMELINDO DA SILVA               00000000000 7980601000000                                                       000245
1AAA            AAB                            172308203      20170213 N B0510    00000000000002            0100000308203006170000000085268         KS230617000000000000000011006170000000004268000000000000000000000000001000006138566190MILENA ISERNHAGEN SCHAEDLER             CAMILO ERMELINDO DA SILVA               00000000000 7980601000000                                                       000246
1AAA            AAB                            172308211      20170213 N B0610    00000000000002            0100000308213107170000000085268         KS240717000000000000000011007170000000004268000000000000000000000000001000006138566190MILENA ISERNHAGEN SCHAEDLER             CAMILO ERMELINDO DA SILVA               00000000000 7980601000000                                                       000247
1AAA            AAB                            172308220      20170213 N B0710    00000000000002            0100000308223108170000000085268         KS240817000000000000000011008170000000004268000000000000000000000000001000006138566190MILENA ISERNHAGEN SCHAEDLER             CAMILO ERMELINDO DA SILVA               00000000000 7980601000000                                                       000248
