01REMESSA01COBRANCA       2643103361110000177                               748SICREDI        20170208        0000029                                                                                                                                                                                                                                                                                 2.00000001
1AAA            AAB                            172000659      20170208 N B0211    00000000000002            0100000000652802170000000076060         KS210217000000000000000022002170000000000306000000000000000000000000001000001308956100RAFAELA PEREIRA RIBAS GONCALVES         NOSSA SENHORA DE FATIMA                 00000000000 7970000000000                                                       000002
1AAA            AAB                            172000667      20170208 N B0211    00000000000002            0100000000663103170000000076060         KS240317000000000000000021003170000000000306000000000000000000000000001000001308956100RAFAELA PEREIRA RIBAS GONCALVES         NOSSA SENHORA DE FATIMA                 00000000000 7970000000000                                                       000003
1AAA            AAB                            172000675      20170208 N B0311    00000000000002            0100000000673004170000000076060         KS230417000000000000000021004170000000000306000000000000000000000000001000001308956100RAFAELA PEREIRA RIBAS GONCALVES         NOSSA SENHORA DE FATIMA                 00000000000 7970000000000                                                       000004
1AAA            AAB                            172000683      20170208 N B0411    00000000000002            0100000000683105170000000076060         KS240517000000000000000021005170000000000306000000000000000000000000001000001308956100RAFAELA PEREIRA RIBAS GONCALVES         NOSSA SENHORA DE FATIMA                 00000000000 7970000000000                                                       000005
1AAA            AAB                            172000691      20170208 N B0511    00000000000002            0100000000693006170000000076060         KS230617000000000000000021006170000000000306000000000000000000000000001000001308956100RAFAELA PEREIRA RIBAS GONCALVES         NOSSA SENHORA DE FATIMA                 00000000000 7970000000000                                                       000006
1AAA            AAB                            172000705      20170208 N B0611    00000000000002            0100000000703107170000000076060         KS240717000000000000000021007170000000000306000000000000000000000000001000001308956100RAFAELA PEREIRA RIBAS GONCALVES         NOSSA SENHORA DE FATIMA                 00000000000 7970000000000                                                       000007
1AAA            AAB                            172000713      20170208 N B0711    00000000000002            0100000000713108170000000076060         KS240817000000000000000021008170000000000306000000000000000000000000001000001308956100RAFAELA PEREIRA RIBAS GONCALVES         NOSSA SENHORA DE FATIMA                 00000000000 7970000000000                                                       000008
1AAA            AAB                            172000721      20170208 N B0811    00000000000002            0100000000723009170000000076060         KS230917000000000000000021009170000000000306000000000000000000000000001000001308956100RAFAELA PEREIRA RIBAS GONCALVES         NOSSA SENHORA DE FATIMA                 00000000000 7970000000000                                                       000009
1AAA            AAB                            172000730      20170208 N B0911    00000000000002            0100000000733110170000000061060         KS241017000000000000000021010170000000000306000000000000000000000000001000001308956100RAFAELA PEREIRA RIBAS GONCALVES         NOSSA SENHORA DE FATIMA                 00000000000 7970000000000                                                       000010
1AAA            AAB                            172000748      20170208 N B1011    00000000000002            0100000000743011170000000061060         KS231117000000000000000021011170000000000306000000000000000000000000001000001308956100RAFAELA PEREIRA RIBAS GONCALVES         NOSSA SENHORA DE FATIMA                 00000000000 7970000000000                                                       000011
1AAA            AAB                            172000756      20170208 N B1111    00000000000002            0100000000753112170000000061060         KS241217000000000000000021012170000000000306000000000000000000000000001000001308956100RAFAELA PEREIRA RIBAS GONCALVES         NOSSA SENHORA DE FATIMA                 00000000000 7970000000000                                                       000012
1AAA            AAB                            172000764      20170208 N B1211    00000000000002            0100000000762802170000000057742         KS210217000000000000000022002170000000002142000000000000000000000000001000035702605187MARIA APARECIDA FERREIRA DE SOUZA       CIRO MELLO                              00000000000 7980503100000                                                       000013
1AAA            AAB                            172000772      20170208 N B0211    00000000000002            0100000000773103170000000057742         KS240317000000000000000021003170000000002142000000000000000000000000001000035702605187MARIA APARECIDA FERREIRA DE SOUZA       CIRO MELLO                              00000000000 7980503100000                                                       000014
1AAA            AAB                            172000780      20170208 N B0311    00000000000002            0100000000783004170000000057742         KS230417000000000000000021004170000000002142000000000000000000000000001000035702605187MARIA APARECIDA FERREIRA DE SOUZA       CIRO MELLO                              00000000000 7980503100000                                                       000015
1AAA            AAB                            172000799      20170208 N B0411    00000000000002            0100000000793105170000000057742         KS240517000000000000000021005170000000002142000000000000000000000000001000035702605187MARIA APARECIDA FERREIRA DE SOUZA       CIRO MELLO                              00000000000 7980503100000                                                       000016
1AAA            AAB                            172000802      20170208 N B0511    00000000000002            0100000000803006170000000057742         KS230617000000000000000021006170000000002142000000000000000000000000001000035702605187MARIA APARECIDA FERREIRA DE SOUZA       CIRO MELLO                              00000000000 7980503100000                                                       000017
1AAA            AAB                            172000810      20170208 N B0611    00000000000002            0100000000813107170000000057742         KS240717000000000000000021007170000000002142000000000000000000000000001000035702605187MARIA APARECIDA FERREIRA DE SOUZA       CIRO MELLO                              00000000000 7980503100000                                                       000018
1AAA            AAB                            172000829      20170208 N B0711    00000000000002            0100000000823108170000000057742         KS240817000000000000000021008170000000002142000000000000000000000000001000035702605187MARIA APARECIDA FERREIRA DE SOUZA       CIRO MELLO                              00000000000 7980503100000                                                       000019
1AAA            AAB                            172000837      20170208 N B0811    00000000000002            0100000000833009170000000057742         KS230917000000000000000021009170000000002142000000000000000000000000001000035702605187MARIA APARECIDA FERREIRA DE SOUZA       CIRO MELLO                              00000000000 7980503100000                                                       000020
1AAA            AAB                            172000845      20170208 N B0911    00000000000002            0100000000843110170000000042742         KS241017000000000000000021010170000000002142000000000000000000000000001000035702605187MARIA APARECIDA FERREIRA DE SOUZA       CIRO MELLO                              00000000000 7980503100000                                                       000021
1AAA            AAB                            172000853      20170208 N B1011    00000000000002            0100000000853011170000000042742         KS231117000000000000000021011170000000002142000000000000000000000000001000035702605187MARIA APARECIDA FERREIRA DE SOUZA       CIRO MELLO                              00000000000 7980503100000                                                       000022
1AAA            AAB                            172000861      20170208 N B1111    00000000000002            0100000000863112170000000042742         KS241217000000000000000021012170000000002142000000000000000000000000001000035702605187MARIA APARECIDA FERREIRA DE SOUZA       CIRO MELLO                              00000000000 7980503100000                                                       000023
1AAA            AAB                            172000870      20170208 N B1211    00000000000002            0100000000872802170000000060795         KS210217000000000000000022002170000000002295000000000000000000000000001000065395468153CLAUDIA MARIZA DA SILVA TIRLONI         BALBINA DE MATOS                        00000000000 7980000000000                                                       000024
1AAA            AAB                            172000888      20170208 N B0211    00000000000002            0100000000883103170000000060795         KS240317000000000000000021003170000000002295000000000000000000000000001000065395468153CLAUDIA MARIZA DA SILVA TIRLONI         BALBINA DE MATOS                        00000000000 7980000000000                                                       000025
1AAA            AAB                            172000896      20170208 N B0311    00000000000002            0100000000893004170000000060795         KS230417000000000000000021004170000000002295000000000000000000000000001000065395468153CLAUDIA MARIZA DA SILVA TIRLONI         BALBINA DE MATOS                        00000000000 7980000000000                                                       000026
1AAA            AAB                            172000900      20170208 N B0411    00000000000002            0100000000903105170000000060795         KS240517000000000000000021005170000000002295000000000000000000000000001000065395468153CLAUDIA MARIZA DA SILVA TIRLONI         BALBINA DE MATOS                        00000000000 7980000000000                                                       000027
1AAA            AAB                            172000918      20170208 N B0511    00000000000002            0100000000913006170000000060795         KS230617000000000000000021006170000000002295000000000000000000000000001000065395468153CLAUDIA MARIZA DA SILVA TIRLONI         BALBINA DE MATOS                        00000000000 7980000000000                                                       000028
1AAA            AAB                            172000926      20170208 N B0611    00000000000002            0100000000923107170000000060795         KS240717000000000000000021007170000000002295000000000000000000000000001000065395468153CLAUDIA MARIZA DA SILVA TIRLONI         BALBINA DE MATOS                        00000000000 7980000000000                                                       000029
1AAA            AAB                            172000934      20170208 N B0711    00000000000002            0100000000933108170000000060795         KS240817000000000000000021008170000000002295000000000000000000000000001000065395468153CLAUDIA MARIZA DA SILVA TIRLONI         BALBINA DE MATOS                        00000000000 7980000000000                                                       000030
1AAA            AAB                            172000942      20170208 N B0811    00000000000002            0100000000943009170000000060795         KS230917000000000000000021009170000000002295000000000000000000000000001000065395468153CLAUDIA MARIZA DA SILVA TIRLONI         BALBINA DE MATOS                        00000000000 7980000000000                                                       000031
1AAA            AAB                            172000950      20170208 N B0911    00000000000002            0100000000953110170000000045795         KS241017000000000000000021010170000000002295000000000000000000000000001000065395468153CLAUDIA MARIZA DA SILVA TIRLONI         BALBINA DE MATOS                        00000000000 7980000000000                                                       000032
1AAA            AAB                            172000969      20170208 N B1011    00000000000002            0100000000963011170000000045795         KS231117000000000000000021011170000000002295000000000000000000000000001000065395468153CLAUDIA MARIZA DA SILVA TIRLONI         BALBINA DE MATOS                        00000000000 7980000000000                                                       000033
1AAA            AAB                            172000977      20170208 N B1111    00000000000002            0100000000973112170000000045795         KS241217000000000000000021012170000000002295000000000000000000000000001000065395468153CLAUDIA MARIZA DA SILVA TIRLONI         BALBINA DE MATOS                        00000000000 7980000000000                                                       000034
1AAA            AAB                            172000985      20170208 N B1211    00000000000002            0100000000982802170000000060795         KS210217000000000000000022002170000000002295000000000000000000000000001000000209854103ANDRE LUIZ MALERVA PERIN                IRACEMA                                 00000000000 7981323000000                                                       000035
1AAA            AAB                            172000993      20170208 N B0211    00000000000002            0100000000993103170000000060795         KS240317000000000000000021003170000000002295000000000000000000000000001000000209854103ANDRE LUIZ MALERVA PERIN                IRACEMA                                 00000000000 7981323000000                                                       000036
1AAA            AAB                            172001000      20170208 N B0311    00000000000002            0100000001003004170000000060795         KS230417000000000000000021004170000000002295000000000000000000000000001000000209854103ANDRE LUIZ MALERVA PERIN                IRACEMA                                 00000000000 7981323000000                                                       000037
1AAA            AAB                            172001019      20170208 N B0411    00000000000002            0100000001013105170000000060795         KS240517000000000000000021005170000000002295000000000000000000000000001000000209854103ANDRE LUIZ MALERVA PERIN                IRACEMA                                 00000000000 7981323000000                                                       000038
1AAA            AAB                            172001027      20170208 N B0511    00000000000002            0100000001023006170000000060795         KS230617000000000000000021006170000000002295000000000000000000000000001000000209854103ANDRE LUIZ MALERVA PERIN                IRACEMA                                 00000000000 7981323000000                                                       000039
1AAA            AAB                            172001035      20170208 N B0611    00000000000002            0100000001033107170000000060795         KS240717000000000000000021007170000000002295000000000000000000000000001000000209854103ANDRE LUIZ MALERVA PERIN                IRACEMA                                 00000000000 7981323000000                                                       000040
1AAA            AAB                            172001043      20170208 N B0711    00000000000002            0100000001043108170000000060795         KS240817000000000000000021008170000000002295000000000000000000000000001000000209854103ANDRE LUIZ MALERVA PERIN                IRACEMA                                 00000000000 7981323000000                                                       000041
1AAA            AAB                            172001051      20170208 N B0811    00000000000002            0100000001053009170000000060795         KS230917000000000000000021009170000000002295000000000000000000000000001000000209854103ANDRE LUIZ MALERVA PERIN                IRACEMA                                 00000000000 7981323000000                                                       000042
1AAA            AAB                            172001060      20170208 N B0911    00000000000002            0100000001063110170000000045795         KS241017000000000000000021010170000000002295000000000000000000000000001000000209854103ANDRE LUIZ MALERVA PERIN                IRACEMA                                 00000000000 7981323000000                                                       000043
1AAA            AAB                            172001078      20170208 N B1011    00000000000002            0100000001073011170000000045795         KS231117000000000000000021011170000000002295000000000000000000000000001000000209854103ANDRE LUIZ MALERVA PERIN                IRACEMA                                 00000000000 7981323000000                                                       000044
1AAA            AAB                            172001086      20170208 N B1111    00000000000002            0100000001083112170000000045795         KS241217000000000000000021012170000000002295000000000000000000000000001000000209854103ANDRE LUIZ MALERVA PERIN                IRACEMA                                 00000000000 7981323000000                                                       000045
1AAA            AAB                            172001094      20170208 N B1211    00000000000002            0100000001092802170000000054689         KS210217000000000000000022002170000000001989000000000000000000000000001000085648132115EVANI SOARES DA SILVA                   IGNACIA DE MATTOS BRANDAO               00000000000 7982232500000                                                       000046
1AAA            AAB                            172001108      20170208 N B0211    00000000000002            0100000001103103170000000054689         KS240317000000000000000021003170000000001989000000000000000000000000001000085648132115EVANI SOARES DA SILVA                   IGNACIA DE MATTOS BRANDAO               00000000000 7982232500000                                                       000047
1AAA            AAB                            172001116      20170208 N B0311    00000000000002            0100000001113004170000000054689         KS230417000000000000000021004170000000001989000000000000000000000000001000085648132115EVANI SOARES DA SILVA                   IGNACIA DE MATTOS BRANDAO               00000000000 7982232500000                                                       000048
1AAA            AAB                            172001124      20170208 N B0411    00000000000002            0100000001123105170000000054689         KS240517000000000000000021005170000000001989000000000000000000000000001000085648132115EVANI SOARES DA SILVA                   IGNACIA DE MATTOS BRANDAO               00000000000 7982232500000                                                       000049
1AAA            AAB                            172001132      20170208 N B0511    00000000000002            0100000001133006170000000054689         KS230617000000000000000021006170000000001989000000000000000000000000001000085648132115EVANI SOARES DA SILVA                   IGNACIA DE MATTOS BRANDAO               00000000000 7982232500000                                                       000050
1AAA            AAB                            172001140      20170208 N B0611    00000000000002            0100000001143107170000000054689         KS240717000000000000000021007170000000001989000000000000000000000000001000085648132115EVANI SOARES DA SILVA                   IGNACIA DE MATTOS BRANDAO               00000000000 7982232500000                                                       000051
1AAA            AAB                            172001159      20170208 N B0711    00000000000002            0100000001153108170000000054689         KS240817000000000000000021008170000000001989000000000000000000000000001000085648132115EVANI SOARES DA SILVA                   IGNACIA DE MATTOS BRANDAO               00000000000 7982232500000                                                       000052
1AAA            AAB                            172001167      20170208 N B0811    00000000000002            0100000001163009170000000054689         KS230917000000000000000021009170000000001989000000000000000000000000001000085648132115EVANI SOARES DA SILVA                   IGNACIA DE MATTOS BRANDAO               00000000000 7982232500000                                                       000053
1AAA            AAB                            172001175      20170208 N B0911    00000000000002            0100000001173110170000000039689         KS241017000000000000000021010170000000001989000000000000000000000000001000085648132115EVANI SOARES DA SILVA                   IGNACIA DE MATTOS BRANDAO               00000000000 7982232500000                                                       000054
1AAA            AAB                            172001183      20170208 N B1011    00000000000002            0100000001183011170000000039689         KS231117000000000000000021011170000000001989000000000000000000000000001000085648132115EVANI SOARES DA SILVA                   IGNACIA DE MATTOS BRANDAO               00000000000 7982232500000                                                       000055
1AAA            AAB                            172001191      20170208 N B1111    00000000000002            0100000001193112170000000039689         KS241217000000000000000021012170000000001989000000000000000000000000001000085648132115EVANI SOARES DA SILVA                   IGNACIA DE MATTOS BRANDAO               00000000000 7982232500000                                                       000056
1AAA            AAB                            172001205      20170208 N B1211    00000000000002            0100000001202802170000000076060         KS210217000000000000000022002170000000000306000000000000000000000000001000001413194535MARIA APARECIDA TOTTI                   IPIRANGA                                00000000000 7982419000000                                                       000057
1AAA            AAB                            172001213      20170208 N B0211    00000000000002            0100000001213103170000000076060         KS240317000000000000000021003170000000000306000000000000000000000000001000001413194535MARIA APARECIDA TOTTI                   IPIRANGA                                00000000000 7982419000000                                                       000058
1AAA            AAB                            172001221      20170208 N B0311    00000000000002            0100000001223004170000000076060         KS230417000000000000000021004170000000000306000000000000000000000000001000001413194535MARIA APARECIDA TOTTI                   IPIRANGA                                00000000000 7982419000000                                                       000059
1AAA            AAB                            172001230      20170208 N B0411    00000000000002            0100000001233105170000000076060         KS240517000000000000000021005170000000000306000000000000000000000000001000001413194535MARIA APARECIDA TOTTI                   IPIRANGA                                00000000000 7982419000000                                                       000060
1AAA            AAB                            172001248      20170208 N B0511    00000000000002            0100000001243006170000000076060         KS230617000000000000000021006170000000000306000000000000000000000000001000001413194535MARIA APARECIDA TOTTI                   IPIRANGA                                00000000000 7982419000000                                                       000061
1AAA            AAB                            172001256      20170208 N B0611    00000000000002            0100000001253107170000000076060         KS240717000000000000000021007170000000000306000000000000000000000000001000001413194535MARIA APARECIDA TOTTI                   IPIRANGA                                00000000000 7982419000000                                                       000062
1AAA            AAB                            172001264      20170208 N B0711    00000000000002            0100000001263108170000000076060         KS240817000000000000000021008170000000000306000000000000000000000000001000001413194535MARIA APARECIDA TOTTI                   IPIRANGA                                00000000000 7982419000000                                                       000063
1AAA            AAB                            172001272      20170208 N B0811    00000000000002            0100000001273009170000000076060         KS230917000000000000000021009170000000000306000000000000000000000000001000001413194535MARIA APARECIDA TOTTI                   IPIRANGA                                00000000000 7982419000000                                                       000064
1AAA            AAB                            172001280      20170208 N B0911    00000000000002            0100000001283110170000000061060         KS241017000000000000000021010170000000000306000000000000000000000000001000001413194535MARIA APARECIDA TOTTI                   IPIRANGA                                00000000000 7982419000000                                                       000065
1AAA            AAB                            172001299      20170208 N B1011    00000000000002            0100000001293011170000000061060         KS231117000000000000000021011170000000000306000000000000000000000000001000001413194535MARIA APARECIDA TOTTI                   IPIRANGA                                00000000000 7982419000000                                                       000066
1AAA            AAB                            172001302      20170208 N B1111    00000000000002            0100000001303112170000000061060         KS241217000000000000000021012170000000000306000000000000000000000000001000001413194535MARIA APARECIDA TOTTI                   IPIRANGA                                00000000000 7982419000000                                                       000067
1AAA            AAB                            172001310      20170208 N B1211    00000000000002            0100000001312802170000000060795         KS210217000000000000000022002170000000002295000000000000000000000000001000046520821187ZILDA LOPES DE SOUZA CARVALHO           FLORIANO PEIXOTO                        00000000000 0798030500000                                                       000068
1AAA            AAB                            172001329      20170208 N B0211    00000000000002            0100000001323103170000000060795         KS240317000000000000000021003170000000002295000000000000000000000000001000046520821187ZILDA LOPES DE SOUZA CARVALHO           FLORIANO PEIXOTO                        00000000000 0798030500000                                                       000069
1AAA            AAB                            172001337      20170208 N B0311    00000000000002            0100000001333004170000000060795         KS230417000000000000000021004170000000002295000000000000000000000000001000046520821187ZILDA LOPES DE SOUZA CARVALHO           FLORIANO PEIXOTO                        00000000000 0798030500000                                                       000070
1AAA            AAB                            172001345      20170208 N B0411    00000000000002            0100000001343105170000000060795         KS240517000000000000000021005170000000002295000000000000000000000000001000046520821187ZILDA LOPES DE SOUZA CARVALHO           FLORIANO PEIXOTO                        00000000000 0798030500000                                                       000071
1AAA            AAB                            172001353      20170208 N B0511    00000000000002            0100000001353006170000000060795         KS230617000000000000000021006170000000002295000000000000000000000000001000046520821187ZILDA LOPES DE SOUZA CARVALHO           FLORIANO PEIXOTO                        00000000000 0798030500000                                                       000072
1AAA            AAB                            172001361      20170208 N B0611    00000000000002            0100000001363107170000000060795         KS240717000000000000000021007170000000002295000000000000000000000000001000046520821187ZILDA LOPES DE SOUZA CARVALHO           FLORIANO PEIXOTO                        00000000000 0798030500000                                                       000073
1AAA            AAB                            172001370      20170208 N B0711    00000000000002            0100000001373108170000000060795         KS240817000000000000000021008170000000002295000000000000000000000000001000046520821187ZILDA LOPES DE SOUZA CARVALHO           FLORIANO PEIXOTO                        00000000000 0798030500000                                                       000074
1AAA            AAB                            172001388      20170208 N B0811    00000000000002            0100000001383009170000000060795         KS230917000000000000000021009170000000002295000000000000000000000000001000046520821187ZILDA LOPES DE SOUZA CARVALHO           FLORIANO PEIXOTO                        00000000000 0798030500000                                                       000075
1AAA            AAB                            172001396      20170208 N B0911    00000000000002            0100000001393110170000000045795         KS241017000000000000000021010170000000002295000000000000000000000000001000046520821187ZILDA LOPES DE SOUZA CARVALHO           FLORIANO PEIXOTO                        00000000000 0798030500000                                                       000076
1AAA            AAB                            172001400      20170208 N B1011    00000000000002            0100000001403011170000000045795         KS231117000000000000000021011170000000002295000000000000000000000000001000046520821187ZILDA LOPES DE SOUZA CARVALHO           FLORIANO PEIXOTO                        00000000000 0798030500000                                                       000077
1AAA            AAB                            172001418      20170208 N B1111    00000000000002            0100000001413112170000000045795         KS241217000000000000000021012170000000002295000000000000000000000000001000046520821187ZILDA LOPES DE SOUZA CARVALHO           FLORIANO PEIXOTO                        00000000000 0798030500000                                                       000078
1AAA            AAB                            172001426      20170208 N B1211    00000000000002            0100000001422802170000000015000         KS210217000000000000000022002170000000000000000000000000000000000000001000065308514100MARCIO CARDOSO COLMAN                   AUDELINO GARCIA CAMARGO                 00000000000 7981220000000                                                       000079
1AAA            AAB                            172001434      20170208 N B0211    00000000000002            0100000001433103170000000015000         KS240317000000000000000021003170000000000000000000000000000000000000001000065308514100MARCIO CARDOSO COLMAN                   AUDELINO GARCIA CAMARGO                 00000000000 7981220000000                                                       000080
1AAA            AAB                            172001442      20170208 N B0311    00000000000002            0100000001443004170000000015000         KS230417000000000000000021004170000000000000000000000000000000000000001000065308514100MARCIO CARDOSO COLMAN                   AUDELINO GARCIA CAMARGO                 00000000000 7981220000000                                                       000081
1AAA            AAB                            172001450      20170208 N B0411    00000000000002            0100000001453105170000000015000         KS240517000000000000000021005170000000000000000000000000000000000000001000065308514100MARCIO CARDOSO COLMAN                   AUDELINO GARCIA CAMARGO                 00000000000 7981220000000                                                       000082
1AAA            AAB                            172001469      20170208 N B0511    00000000000002            0100000001463006170000000015000         KS230617000000000000000021006170000000000000000000000000000000000000001000065308514100MARCIO CARDOSO COLMAN                   AUDELINO GARCIA CAMARGO                 00000000000 7981220000000                                                       000083
1AAA            AAB                            172001477      20170208 N B0611    00000000000002            0100000001473107170000000015000         KS240717000000000000000021007170000000000000000000000000000000000000001000065308514100MARCIO CARDOSO COLMAN                   AUDELINO GARCIA CAMARGO                 00000000000 7981220000000                                                       000084
1AAA            AAB                            172001485      20170208 N B0711    00000000000002            0100000001483108170000000015000         KS240817000000000000000021008170000000000000000000000000000000000000001000065308514100MARCIO CARDOSO COLMAN                   AUDELINO GARCIA CAMARGO                 00000000000 7981220000000                                                       000085
1AAA            AAB                            172001493      20170208 N B0811    00000000000002            0100000001493009170000000015000         KS230917000000000000000021009170000000000000000000000000000000000000001000065308514100MARCIO CARDOSO COLMAN                   AUDELINO GARCIA CAMARGO                 00000000000 7981220000000                                                       000086
1AAA            AAB                            172001507      20170208 N B0911    00000000000002            0100000001503110170000000000000         KS241017000000000000000021010170000000000000000000000000000000000000001000065308514100MARCIO CARDOSO COLMAN                   AUDELINO GARCIA CAMARGO                 00000000000 7981220000000                                                       000087
1AAA            AAB                            172001515      20170208 N B1011    00000000000002            0100000001513011170000000000000         KS231117000000000000000021011170000000000000000000000000000000000000001000065308514100MARCIO CARDOSO COLMAN                   AUDELINO GARCIA CAMARGO                 00000000000 7981220000000                                                       000088
1AAA            AAB                            172001523      20170208 N B1111    00000000000002            0100000001523112170000000000000         KS241217000000000000000021012170000000000000000000000000000000000000001000065308514100MARCIO CARDOSO COLMAN                   AUDELINO GARCIA CAMARGO                 00000000000 7981220000000                                                       000089
1AAA            AAB                            172001531      20170208 N B1211    00000000000002            0100000001532802170000000051636         KS210217000000000000000022002170000000001836000000000000000000000000001000096402474304PATRICIA JANE DE SOUSA TELES            MOHAMED H  HAJJ                         00000000000 7982338000000                                                       000090
1AAA            AAB                            172001540      20170208 N B0211    00000000000002            0100000001543103170000000051636         KS240317000000000000000021003170000000001836000000000000000000000000001000096402474304PATRICIA JANE DE SOUSA TELES            MOHAMED H  HAJJ                         00000000000 7982338000000                                                       000091
1AAA            AAB                            172001558      20170208 N B0311    00000000000002            0100000001553004170000000051636         KS230417000000000000000021004170000000001836000000000000000000000000001000096402474304PATRICIA JANE DE SOUSA TELES            MOHAMED H  HAJJ                         00000000000 7982338000000                                                       000092
1AAA            AAB                            172001566      20170208 N B0411    00000000000002            0100000001563105170000000051636         KS240517000000000000000021005170000000001836000000000000000000000000001000096402474304PATRICIA JANE DE SOUSA TELES            MOHAMED H  HAJJ                         00000000000 7982338000000                                                       000093
1AAA            AAB                            172001574      20170208 N B0511    00000000000002            0100000001573006170000000051636         KS230617000000000000000021006170000000001836000000000000000000000000001000096402474304PATRICIA JANE DE SOUSA TELES            MOHAMED H  HAJJ                         00000000000 7982338000000                                                       000094
1AAA            AAB                            172001582      20170208 N B0611    00000000000002            0100000001583107170000000051636         KS240717000000000000000021007170000000001836000000000000000000000000001000096402474304PATRICIA JANE DE SOUSA TELES            MOHAMED H  HAJJ                         00000000000 7982338000000                                                       000095
1AAA            AAB                            172001590      20170208 N B0711    00000000000002            0100000001593108170000000051636         KS240817000000000000000021008170000000001836000000000000000000000000001000096402474304PATRICIA JANE DE SOUSA TELES            MOHAMED H  HAJJ                         00000000000 7982338000000                                                       000096
1AAA            AAB                            172001604      20170208 N B0811    00000000000002            0100000001603009170000000051636         KS230917000000000000000021009170000000001836000000000000000000000000001000096402474304PATRICIA JANE DE SOUSA TELES            MOHAMED H  HAJJ                         00000000000 7982338000000                                                       000097
1AAA            AAB                            172001612      20170208 N B0911    00000000000002            0100000001613110170000000036636         KS241017000000000000000021010170000000001836000000000000000000000000001000096402474304PATRICIA JANE DE SOUSA TELES            MOHAMED H  HAJJ                         00000000000 7982338000000                                                       000098
1AAA            AAB                            172001620      20170208 N B1011    00000000000002            0100000001623011170000000036636         KS231117000000000000000021011170000000001836000000000000000000000000001000096402474304PATRICIA JANE DE SOUSA TELES            MOHAMED H  HAJJ                         00000000000 7982338000000                                                       000099
1AAA            AAB                            172001639      20170208 N B1111    00000000000002            0100000001633112170000000036636         KS241217000000000000000021012170000000001836000000000000000000000000001000096402474304PATRICIA JANE DE SOUSA TELES            MOHAMED H  HAJJ                         00000000000 7982338000000                                                       000100
1AAA            AAB                            172001647      20170208 N B1211    00000000000002            0100000001642802170000000033318         KS210217000000000000000022002170000000000918000000000000000000000000001000066247071191MARCIA ARZAMENDIA DO NASCIMENTO         MARJOR CAPILE                           00000000000 7983304000000                                                       000101
1AAA            AAB                            172001655      20170208 N B0211    00000000000002            0100000001653103170000000033318         KS240317000000000000000021003170000000000918000000000000000000000000001000066247071191MARCIA ARZAMENDIA DO NASCIMENTO         MARJOR CAPILE                           00000000000 7983304000000                                                       000102
1AAA            AAB                            172001663      20170208 N B0311    00000000000002            0100000001663004170000000033318         KS230417000000000000000021004170000000000918000000000000000000000000001000066247071191MARCIA ARZAMENDIA DO NASCIMENTO         MARJOR CAPILE                           00000000000 7983304000000                                                       000103
1AAA            AAB                            172001671      20170208 N B0411    00000000000002            0100000001673105170000000033318         KS240517000000000000000021005170000000000918000000000000000000000000001000066247071191MARCIA ARZAMENDIA DO NASCIMENTO         MARJOR CAPILE                           00000000000 7983304000000                                                       000104
1AAA            AAB                            172001680      20170208 N B0511    00000000000002            0100000001683006170000000033318         KS230617000000000000000021006170000000000918000000000000000000000000001000066247071191MARCIA ARZAMENDIA DO NASCIMENTO         MARJOR CAPILE                           00000000000 7983304000000                                                       000105
1AAA            AAB                            172001698      20170208 N B0611    00000000000002            0100000001693107170000000033318         KS240717000000000000000021007170000000000918000000000000000000000000001000066247071191MARCIA ARZAMENDIA DO NASCIMENTO         MARJOR CAPILE                           00000000000 7983304000000                                                       000106
1AAA            AAB                            172001701      20170208 N B0711    00000000000002            0100000001703108170000000033318         KS240817000000000000000021008170000000000918000000000000000000000000001000066247071191MARCIA ARZAMENDIA DO NASCIMENTO         MARJOR CAPILE                           00000000000 7983304000000                                                       000107
1AAA            AAB                            172001710      20170208 N B0811    00000000000002            0100000001713009170000000033318         KS230917000000000000000021009170000000000918000000000000000000000000001000066247071191MARCIA ARZAMENDIA DO NASCIMENTO         MARJOR CAPILE                           00000000000 7983304000000                                                       000108
1AAA            AAB                            172001728      20170208 N B0911    00000000000002            0100000001723110170000000018318         KS241017000000000000000021010170000000000918000000000000000000000000001000066247071191MARCIA ARZAMENDIA DO NASCIMENTO         MARJOR CAPILE                           00000000000 7983304000000                                                       000109
1AAA            AAB                            172001736      20170208 N B1011    00000000000002            0100000001733011170000000018318         KS231117000000000000000021011170000000000918000000000000000000000000001000066247071191MARCIA ARZAMENDIA DO NASCIMENTO         MARJOR CAPILE                           00000000000 7983304000000                                                       000110
1AAA            AAB                            172001744      20170208 N B1111    00000000000002            0100000001743112170000000018318         KS241217000000000000000021012170000000000918000000000000000000000000001000066247071191MARCIA ARZAMENDIA DO NASCIMENTO         MARJOR CAPILE                           00000000000 7983304000000                                                       000111
1AAA            AAB                            172001752      20170208 N B1211    00000000000002            0100000001752802170000000076060         KS210217000000000000000022002170000000000306000000000000000000000000001000058220585153CARLA AKEMI SAKAGUTI T. FERNANDES       JOAQUIM TEIXEIRA ALVES                  00000000000 7980101400000                                                       000112
1AAA            AAB                            172001760      20170208 N B0211    00000000000002            0100000001763103170000000076060         KS240317000000000000000021003170000000000306000000000000000000000000001000058220585153CARLA AKEMI SAKAGUTI T. FERNANDES       JOAQUIM TEIXEIRA ALVES                  00000000000 7980101400000                                                       000113
1AAA            AAB                            172001779      20170208 N B0311    00000000000002            0100000001773004170000000076060         KS230417000000000000000021004170000000000306000000000000000000000000001000058220585153CARLA AKEMI SAKAGUTI T. FERNANDES       JOAQUIM TEIXEIRA ALVES                  00000000000 7980101400000                                                       000114
1AAA            AAB                            172001787      20170208 N B0411    00000000000002            0100000001783105170000000076060         KS240517000000000000000021005170000000000306000000000000000000000000001000058220585153CARLA AKEMI SAKAGUTI T. FERNANDES       JOAQUIM TEIXEIRA ALVES                  00000000000 7980101400000                                                       000115
1AAA            AAB                            172001795      20170208 N B0511    00000000000002            0100000001793006170000000076060         KS230617000000000000000021006170000000000306000000000000000000000000001000058220585153CARLA AKEMI SAKAGUTI T. FERNANDES       JOAQUIM TEIXEIRA ALVES                  00000000000 7980101400000                                                       000116
1AAA            AAB                            172001809      20170208 N B0611    00000000000002            0100000001803107170000000076060         KS240717000000000000000021007170000000000306000000000000000000000000001000058220585153CARLA AKEMI SAKAGUTI T. FERNANDES       JOAQUIM TEIXEIRA ALVES                  00000000000 7980101400000                                                       000117
1AAA            AAB                            172001817      20170208 N B0711    00000000000002            0100000001813108170000000076060         KS240817000000000000000021008170000000000306000000000000000000000000001000058220585153CARLA AKEMI SAKAGUTI T. FERNANDES       JOAQUIM TEIXEIRA ALVES                  00000000000 7980101400000                                                       000118
1AAA            AAB                            172001825      20170208 N B0811    00000000000002            0100000001823009170000000076060         KS230917000000000000000021009170000000000306000000000000000000000000001000058220585153CARLA AKEMI SAKAGUTI T. FERNANDES       JOAQUIM TEIXEIRA ALVES                  00000000000 7980101400000                                                       000119
1AAA            AAB                            172001833      20170208 N B0911    00000000000002            0100000001833110170000000061060         KS241017000000000000000021010170000000000306000000000000000000000000001000058220585153CARLA AKEMI SAKAGUTI T. FERNANDES       JOAQUIM TEIXEIRA ALVES                  00000000000 7980101400000                                                       000120
1AAA            AAB                            172001841      20170208 N B1011    00000000000002            0100000001843011170000000061060         KS231117000000000000000021011170000000000306000000000000000000000000001000058220585153CARLA AKEMI SAKAGUTI T. FERNANDES       JOAQUIM TEIXEIRA ALVES                  00000000000 7980101400000                                                       000121
1AAA            AAB                            172001850      20170208 N B1111    00000000000002            0100000001853112170000000061060         KS241217000000000000000021012170000000000306000000000000000000000000001000058220585153CARLA AKEMI SAKAGUTI T. FERNANDES       JOAQUIM TEIXEIRA ALVES                  00000000000 7980101400000                                                       000122
1AAA            AAB                            172001868      20170208 N B1211    00000000000002            0100000001862802170000000051636         KS210217000000000000000022002170000000001836000000000000000000000000001000085271241149EVILASIO DO NASCIMENTO FURTADO          ANTONIO MENEGATTI FILHO                 00000000000 7994000000000                                                       000123
1AAA            AAB                            172001876      20170208 N B0211    00000000000002            0100000001873103170000000051636         KS240317000000000000000021003170000000001836000000000000000000000000001000085271241149EVILASIO DO NASCIMENTO FURTADO          ANTONIO MENEGATTI FILHO                 00000000000 7994000000000                                                       000124
1AAA            AAB                            172001884      20170208 N B0311    00000000000002            0100000001883004170000000051636         KS230417000000000000000021004170000000001836000000000000000000000000001000085271241149EVILASIO DO NASCIMENTO FURTADO          ANTONIO MENEGATTI FILHO                 00000000000 7994000000000                                                       000125
1AAA            AAB                            172001892      20170208 N B0411    00000000000002            0100000001893105170000000051636         KS240517000000000000000021005170000000001836000000000000000000000000001000085271241149EVILASIO DO NASCIMENTO FURTADO          ANTONIO MENEGATTI FILHO                 00000000000 7994000000000                                                       000126
1AAA            AAB                            172001906      20170208 N B0511    00000000000002            0100000001903006170000000051636         KS230617000000000000000021006170000000001836000000000000000000000000001000085271241149EVILASIO DO NASCIMENTO FURTADO          ANTONIO MENEGATTI FILHO                 00000000000 7994000000000                                                       000127
1AAA            AAB                            172001914      20170208 N B0611    00000000000002            0100000001913107170000000051636         KS240717000000000000000021007170000000001836000000000000000000000000001000085271241149EVILASIO DO NASCIMENTO FURTADO          ANTONIO MENEGATTI FILHO                 00000000000 7994000000000                                                       000128
1AAA            AAB                            172001922      20170208 N B0711    00000000000002            0100000001923108170000000051636         KS240817000000000000000021008170000000001836000000000000000000000000001000085271241149EVILASIO DO NASCIMENTO FURTADO          ANTONIO MENEGATTI FILHO                 00000000000 7994000000000                                                       000129
1AAA            AAB                            172001930      20170208 N B0811    00000000000002            0100000001933009170000000051636         KS230917000000000000000021009170000000001836000000000000000000000000001000085271241149EVILASIO DO NASCIMENTO FURTADO          ANTONIO MENEGATTI FILHO                 00000000000 7994000000000                                                       000130
1AAA            AAB                            172001949      20170208 N B0911    00000000000002            0100000001943110170000000036636         KS241017000000000000000021010170000000001836000000000000000000000000001000085271241149EVILASIO DO NASCIMENTO FURTADO          ANTONIO MENEGATTI FILHO                 00000000000 7994000000000                                                       000131
1AAA            AAB                            172001957      20170208 N B1011    00000000000002            0100000001953011170000000036636         KS231117000000000000000021011170000000001836000000000000000000000000001000085271241149EVILASIO DO NASCIMENTO FURTADO          ANTONIO MENEGATTI FILHO                 00000000000 7994000000000                                                       000132
1AAA            AAB                            172001965      20170208 N B1111    00000000000002            0100000001963112170000000036636         KS241217000000000000000021012170000000001836000000000000000000000000001000085271241149EVILASIO DO NASCIMENTO FURTADO          ANTONIO MENEGATTI FILHO                 00000000000 7994000000000                                                       000133
1AAA            AAB                            172001973      20170208 N B1211    00000000000002            0100000001972802170000000069954         KS210217000000000000000022002170000000002754000000000000000000000000001000084174153191LUCIANE GONCALVES CAMPOS NOVAES         FREI ANTONIO                            00000000000 7981221000000                                                       000134
1AAA            AAB                            172001981      20170208 N B0211    00000000000002            0100000001983103170000000069954         KS240317000000000000000021003170000000002754000000000000000000000000001000084174153191LUCIANE GONCALVES CAMPOS NOVAES         FREI ANTONIO                            00000000000 7981221000000                                                       000135
1AAA            AAB                            172001990      20170208 N B0311    00000000000002            0100000001993004170000000069954         KS230417000000000000000021004170000000002754000000000000000000000000001000084174153191LUCIANE GONCALVES CAMPOS NOVAES         FREI ANTONIO                            00000000000 7981221000000                                                       000136
1AAA            AAB                            172002007      20170208 N B0411    00000000000002            0100000002003105170000000069954         KS240517000000000000000021005170000000002754000000000000000000000000001000084174153191LUCIANE GONCALVES CAMPOS NOVAES         FREI ANTONIO                            00000000000 7981221000000                                                       000137
1AAA            AAB                            172002015      20170208 N B0511    00000000000002            0100000002013006170000000069954         KS230617000000000000000021006170000000002754000000000000000000000000001000084174153191LUCIANE GONCALVES CAMPOS NOVAES         FREI ANTONIO                            00000000000 7981221000000                                                       000138
1AAA            AAB                            172002023      20170208 N B0611    00000000000002            0100000002023107170000000069954         KS240717000000000000000021007170000000002754000000000000000000000000001000084174153191LUCIANE GONCALVES CAMPOS NOVAES         FREI ANTONIO                            00000000000 7981221000000                                                       000139
1AAA            AAB                            172002031      20170208 N B0711    00000000000002            0100000002033108170000000069954         KS240817000000000000000021008170000000002754000000000000000000000000001000084174153191LUCIANE GONCALVES CAMPOS NOVAES         FREI ANTONIO                            00000000000 7981221000000                                                       000140
1AAA            AAB                            172002040      20170208 N B0811    00000000000002            0100000002043009170000000069954         KS230917000000000000000021009170000000002754000000000000000000000000001000084174153191LUCIANE GONCALVES CAMPOS NOVAES         FREI ANTONIO                            00000000000 7981221000000                                                       000141
1AAA            AAB                            172002058      20170208 N B0911    00000000000002            0100000002053110170000000054954         KS241017000000000000000021010170000000002754000000000000000000000000001000084174153191LUCIANE GONCALVES CAMPOS NOVAES         FREI ANTONIO                            00000000000 7981221000000                                                       000142
1AAA            AAB                            172002066      20170208 N B1011    00000000000002            0100000002063011170000000054954         KS231117000000000000000021011170000000002754000000000000000000000000001000084174153191LUCIANE GONCALVES CAMPOS NOVAES         FREI ANTONIO                            00000000000 7981221000000                                                       000143
1AAA            AAB                            172002074      20170208 N B1111    00000000000002            0100000002073112170000000054954         KS241217000000000000000021012170000000002754000000000000000000000000001000084174153191LUCIANE GONCALVES CAMPOS NOVAES         FREI ANTONIO                            00000000000 7981221000000                                                       000144
1AAA            AAB                            172002082      20170208 N B1211    00000000000002            0100000002082802170000000057742         KS210217000000000000000022002170000000002142000000000000000000000000001000084637986168SANDRA BRAGHINE                         PARANA                                  00000000000 7994000000000                                                       000145
1AAA            AAB                            172002090      20170208 N B0211    00000000000002            0100000002093103170000000057742         KS240317000000000000000021003170000000002142000000000000000000000000001000084637986168SANDRA BRAGHINE                         PARANA                                  00000000000 7994000000000                                                       000146
1AAA            AAB                            172002104      20170208 N B0311    00000000000002            0100000002103004170000000057742         KS230417000000000000000021004170000000002142000000000000000000000000001000084637986168SANDRA BRAGHINE                         PARANA                                  00000000000 7994000000000                                                       000147
1AAA            AAB                            172002112      20170208 N B0411    00000000000002            0100000002113105170000000057742         KS240517000000000000000021005170000000002142000000000000000000000000001000084637986168SANDRA BRAGHINE                         PARANA                                  00000000000 7994000000000                                                       000148
1AAA            AAB                            172002120      20170208 N B0511    00000000000002            0100000002123006170000000057742         KS230617000000000000000021006170000000002142000000000000000000000000001000084637986168SANDRA BRAGHINE                         PARANA                                  00000000000 7994000000000                                                       000149
1AAA            AAB                            172002139      20170208 N B0611    00000000000002            0100000002133107170000000057742         KS240717000000000000000021007170000000002142000000000000000000000000001000084637986168SANDRA BRAGHINE                         PARANA                                  00000000000 7994000000000                                                       000150
1AAA            AAB                            172002147      20170208 N B0711    00000000000002            0100000002143108170000000057742         KS240817000000000000000021008170000000002142000000000000000000000000001000084637986168SANDRA BRAGHINE                         PARANA                                  00000000000 7994000000000                                                       000151
1AAA            AAB                            172002155      20170208 N B0811    00000000000002            0100000002153009170000000057742         KS230917000000000000000021009170000000002142000000000000000000000000001000084637986168SANDRA BRAGHINE                         PARANA                                  00000000000 7994000000000                                                       000152
1AAA            AAB                            172002163      20170208 N B0911    00000000000002            0100000002163110170000000042742         KS241017000000000000000021010170000000002142000000000000000000000000001000084637986168SANDRA BRAGHINE                         PARANA                                  00000000000 7994000000000                                                       000153
1AAA            AAB                            172002171      20170208 N B1011    00000000000002            0100000002173011170000000042742         KS231117000000000000000021011170000000002142000000000000000000000000001000084637986168SANDRA BRAGHINE                         PARANA                                  00000000000 7994000000000                                                       000154
1AAA            AAB                            172002180      20170208 N B1111    00000000000002            0100000002183112170000000042742         KS241217000000000000000021012170000000002142000000000000000000000000001000084637986168SANDRA BRAGHINE                         PARANA                                  00000000000 7994000000000                                                       000155
1AAA            AAB                            172002198      20170208 N B1211    00000000000002            0100000002192802170000000063848         KS210217000000000000000022002170000000002448000000000000000000000000001000088391035972LUCIANA MARIA BULCAO MICHELON           DUQUE DE CAXIAS                         00000000000 7983106000000                                                       000156
1AAA            AAB                            172002201      20170208 N B0211    00000000000002            0100000002203103170000000063848         KS240317000000000000000021003170000000002448000000000000000000000000001000088391035972LUCIANA MARIA BULCAO MICHELON           DUQUE DE CAXIAS                         00000000000 7983106000000                                                       000157
1AAA            AAB                            172002210      20170208 N B0311    00000000000002            0100000002213004170000000063848         KS230417000000000000000021004170000000002448000000000000000000000000001000088391035972LUCIANA MARIA BULCAO MICHELON           DUQUE DE CAXIAS                         00000000000 7983106000000                                                       000158
1AAA            AAB                            172002228      20170208 N B0411    00000000000002            0100000002223105170000000063848         KS240517000000000000000021005170000000002448000000000000000000000000001000088391035972LUCIANA MARIA BULCAO MICHELON           DUQUE DE CAXIAS                         00000000000 7983106000000                                                       000159
1AAA            AAB                            172002236      20170208 N B0511    00000000000002            0100000002233006170000000063848         KS230617000000000000000021006170000000002448000000000000000000000000001000088391035972LUCIANA MARIA BULCAO MICHELON           DUQUE DE CAXIAS                         00000000000 7983106000000                                                       000160
1AAA            AAB                            172002244      20170208 N B0611    00000000000002            0100000002243107170000000063848         KS240717000000000000000021007170000000002448000000000000000000000000001000088391035972LUCIANA MARIA BULCAO MICHELON           DUQUE DE CAXIAS                         00000000000 7983106000000                                                       000161
1AAA            AAB                            172002252      20170208 N B0711    00000000000002            0100000002253108170000000063848         KS240817000000000000000021008170000000002448000000000000000000000000001000088391035972LUCIANA MARIA BULCAO MICHELON           DUQUE DE CAXIAS                         00000000000 7983106000000                                                       000162
1AAA            AAB                            172002260      20170208 N B0811    00000000000002            0100000002263009170000000063848         KS230917000000000000000021009170000000002448000000000000000000000000001000088391035972LUCIANA MARIA BULCAO MICHELON           DUQUE DE CAXIAS                         00000000000 7983106000000                                                       000163
1AAA            AAB                            172002279      20170208 N B0911    00000000000002            0100000002273110170000000048848         KS241017000000000000000021010170000000002448000000000000000000000000001000088391035972LUCIANA MARIA BULCAO MICHELON           DUQUE DE CAXIAS                         00000000000 7983106000000                                                       000164
1AAA            AAB                            172002287      20170208 N B1011    00000000000002            0100000002283011170000000048848         KS231117000000000000000021011170000000002448000000000000000000000000001000088391035972LUCIANA MARIA BULCAO MICHELON           DUQUE DE CAXIAS                         00000000000 7983106000000                                                       000165
1AAA            AAB                            172002295      20170208 N B1111    00000000000002            0100000002293112170000000048848         KS241217000000000000000021012170000000002448000000000000000000000000001000088391035972LUCIANA MARIA BULCAO MICHELON           DUQUE DE CAXIAS                         00000000000 7983106000000                                                       000166
1AAA            AAB                            172002309      20170208 N B1211    00000000000002            0100000002302802170000000057742         KS210217000000000000000022002170000000002142000000000000000000000000001000036555100125JOSE CARMELIO FREIRE LEITE              JOSUE GARCIA PIRES                      00000000000 7984046000000                                                       000167
1AAA            AAB                            172002317      20170208 N B0211    00000000000002            0100000002313103170000000057742         KS240317000000000000000021003170000000002142000000000000000000000000001000036555100125JOSE CARMELIO FREIRE LEITE              JOSUE GARCIA PIRES                      00000000000 7984046000000                                                       000168
1AAA            AAB                            172002325      20170208 N B0311    00000000000002            0100000002323004170000000057742         KS230417000000000000000021004170000000002142000000000000000000000000001000036555100125JOSE CARMELIO FREIRE LEITE              JOSUE GARCIA PIRES                      00000000000 7984046000000                                                       000169
1AAA            AAB                            172002333      20170208 N B0411    00000000000002            0100000002333105170000000057742         KS240517000000000000000021005170000000002142000000000000000000000000001000036555100125JOSE CARMELIO FREIRE LEITE              JOSUE GARCIA PIRES                      00000000000 7984046000000                                                       000170
1AAA            AAB                            172002341      20170208 N B0511    00000000000002            0100000002343006170000000057742         KS230617000000000000000021006170000000002142000000000000000000000000001000036555100125JOSE CARMELIO FREIRE LEITE              JOSUE GARCIA PIRES                      00000000000 7984046000000                                                       000171
1AAA            AAB                            172002350      20170208 N B0611    00000000000002            0100000002353107170000000057742         KS240717000000000000000021007170000000002142000000000000000000000000001000036555100125JOSE CARMELIO FREIRE LEITE              JOSUE GARCIA PIRES                      00000000000 7984046000000                                                       000172
1AAA            AAB                            172002368      20170208 N B0711    00000000000002            0100000002363108170000000057742         KS240817000000000000000021008170000000002142000000000000000000000000001000036555100125JOSE CARMELIO FREIRE LEITE              JOSUE GARCIA PIRES                      00000000000 7984046000000                                                       000173
1AAA            AAB                            172002376      20170208 N B0811    00000000000002            0100000002373009170000000057742         KS230917000000000000000021009170000000002142000000000000000000000000001000036555100125JOSE CARMELIO FREIRE LEITE              JOSUE GARCIA PIRES                      00000000000 7984046000000                                                       000174
1AAA            AAB                            172002384      20170208 N B0911    00000000000002            0100000002383110170000000042742         KS241017000000000000000021010170000000002142000000000000000000000000001000036555100125JOSE CARMELIO FREIRE LEITE              JOSUE GARCIA PIRES                      00000000000 7984046000000                                                       000175
1AAA            AAB                            172002392      20170208 N B1011    00000000000002            0100000002393011170000000042742         KS231117000000000000000021011170000000002142000000000000000000000000001000036555100125JOSE CARMELIO FREIRE LEITE              JOSUE GARCIA PIRES                      00000000000 7984046000000                                                       000176
1AAA            AAB                            172002406      20170208 N B1111    00000000000002            0100000002403112170000000042742         KS241217000000000000000021012170000000002142000000000000000000000000001000036555100125JOSE CARMELIO FREIRE LEITE              JOSUE GARCIA PIRES                      00000000000 7984046000000                                                       000177
1AAA            AAB                            172002414      20170208 N B1211    00000000000002            0100000002412802170000000051636         KS210217000000000000000022002170000000001836000000000000000000000000001000048074802191VANDUIR CABRERA LIMA                    JOSUE GARCIA PIRES                      00000000000 7981214000000                                                       000178
1AAA            AAB                            172002422      20170208 N B0211    00000000000002            0100000002423103170000000051636         KS240317000000000000000021003170000000001836000000000000000000000000001000048074802191VANDUIR CABRERA LIMA                    JOSUE GARCIA PIRES                      00000000000 7981214000000                                                       000179
1AAA            AAB                            172002430      20170208 N B0311    00000000000002            0100000002433004170000000051636         KS230417000000000000000021004170000000001836000000000000000000000000001000048074802191VANDUIR CABRERA LIMA                    JOSUE GARCIA PIRES                      00000000000 7981214000000                                                       000180
1AAA            AAB                            172002449      20170208 N B0411    00000000000002            0100000002443105170000000051636         KS240517000000000000000021005170000000001836000000000000000000000000001000048074802191VANDUIR CABRERA LIMA                    JOSUE GARCIA PIRES                      00000000000 7981214000000                                                       000181
1AAA            AAB                            172002457      20170208 N B0511    00000000000002            0100000002453006170000000051636         KS230617000000000000000021006170000000001836000000000000000000000000001000048074802191VANDUIR CABRERA LIMA                    JOSUE GARCIA PIRES                      00000000000 7981214000000                                                       000182
1AAA            AAB                            172002465      20170208 N B0611    00000000000002            0100000002463107170000000051636         KS240717000000000000000021007170000000001836000000000000000000000000001000048074802191VANDUIR CABRERA LIMA                    JOSUE GARCIA PIRES                      00000000000 7981214000000                                                       000183
1AAA            AAB                            172002473      20170208 N B0711    00000000000002            0100000002473108170000000051636         KS240817000000000000000021008170000000001836000000000000000000000000001000048074802191VANDUIR CABRERA LIMA                    JOSUE GARCIA PIRES                      00000000000 7981214000000                                                       000184
1AAA            AAB                            172002481      20170208 N B0811    00000000000002            0100000002483009170000000051636         KS230917000000000000000021009170000000001836000000000000000000000000001000048074802191VANDUIR CABRERA LIMA                    JOSUE GARCIA PIRES                      00000000000 7981214000000                                                       000185
1AAA            AAB                            172002490      20170208 N B0911    00000000000002            0100000002493110170000000036636         KS241017000000000000000021010170000000001836000000000000000000000000001000048074802191VANDUIR CABRERA LIMA                    JOSUE GARCIA PIRES                      00000000000 7981214000000                                                       000186
1AAA            AAB                            172002503      20170208 N B1011    00000000000002            0100000002503011170000000036636         KS231117000000000000000021011170000000001836000000000000000000000000001000048074802191VANDUIR CABRERA LIMA                    JOSUE GARCIA PIRES                      00000000000 7981214000000                                                       000187
1AAA            AAB                            172002511      20170208 N B1111    00000000000002            0100000002513112170000000036636         KS241217000000000000000021012170000000001836000000000000000000000000001000048074802191VANDUIR CABRERA LIMA                    JOSUE GARCIA PIRES                      00000000000 7981214000000                                                       000188
1AAA            AAB                            172002520      20170208 N B1211    00000000000002            0100000002522802170000000063848         KS210217000000000000000022002170000000002448000000000000000000000000001000050198068034VERA LUCIA NARDI PANDOLFO               FERNANDO CORREIA DA COSTA               00000000000 7989000000000                                                       000189
1AAA            AAB                            172002538      20170208 N B0211    00000000000002            0100000002533103170000000063848         KS240317000000000000000021003170000000002448000000000000000000000000001000050198068034VERA LUCIA NARDI PANDOLFO               FERNANDO CORREIA DA COSTA               00000000000 7989000000000                                                       000190
1AAA            AAB                            172002546      20170208 N B0311    00000000000002            0100000002543004170000000063848         KS230417000000000000000021004170000000002448000000000000000000000000001000050198068034VERA LUCIA NARDI PANDOLFO               FERNANDO CORREIA DA COSTA               00000000000 7989000000000                                                       000191
1AAA            AAB                            172002554      20170208 N B0411    00000000000002            0100000002553105170000000063848         KS240517000000000000000021005170000000002448000000000000000000000000001000050198068034VERA LUCIA NARDI PANDOLFO               FERNANDO CORREIA DA COSTA               00000000000 7989000000000                                                       000192
1AAA            AAB                            172002562      20170208 N B0511    00000000000002            0100000002563006170000000063848         KS230617000000000000000021006170000000002448000000000000000000000000001000050198068034VERA LUCIA NARDI PANDOLFO               FERNANDO CORREIA DA COSTA               00000000000 7989000000000                                                       000193
1AAA            AAB                            172002570      20170208 N B0611    00000000000002            0100000002573107170000000063848         KS240717000000000000000021007170000000002448000000000000000000000000001000050198068034VERA LUCIA NARDI PANDOLFO               FERNANDO CORREIA DA COSTA               00000000000 7989000000000                                                       000194
1AAA            AAB                            172002589      20170208 N B0711    00000000000002            0100000002583108170000000063848         KS240817000000000000000021008170000000002448000000000000000000000000001000050198068034VERA LUCIA NARDI PANDOLFO               FERNANDO CORREIA DA COSTA               00000000000 7989000000000                                                       000195
1AAA            AAB                            172002597      20170208 N B0811    00000000000002            0100000002593009170000000063848         KS230917000000000000000021009170000000002448000000000000000000000000001000050198068034VERA LUCIA NARDI PANDOLFO               FERNANDO CORREIA DA COSTA               00000000000 7989000000000                                                       000196
1AAA            AAB                            172002600      20170208 N B0911    00000000000002            0100000002603110170000000048848         KS241017000000000000000021010170000000002448000000000000000000000000001000050198068034VERA LUCIA NARDI PANDOLFO               FERNANDO CORREIA DA COSTA               00000000000 7989000000000                                                       000197
1AAA            AAB                            172002619      20170208 N B1011    00000000000002            0100000002613011170000000048848         KS231117000000000000000021011170000000002448000000000000000000000000001000050198068034VERA LUCIA NARDI PANDOLFO               FERNANDO CORREIA DA COSTA               00000000000 7989000000000                                                       000198
1AAA            AAB                            172002627      20170208 N B1111    00000000000002            0100000002623112170000000048848         KS241217000000000000000021012170000000002448000000000000000000000000001000050198068034VERA LUCIA NARDI PANDOLFO               FERNANDO CORREIA DA COSTA               00000000000 7989000000000                                                       000199
1AAA            AAB                            172002635      20170208 N B1211    00000000000002            0100000002632802170000000057742         KS210217000000000000000022002170000000002142000000000000000000000000001000036691615115MARCOS LUIZ LOURENCO COCA               DOS PIONEIROS                           00000000000 7980000000000                                                       000200
1AAA            AAB                            172002643      20170208 N B0211    00000000000002            0100000002643103170000000057742         KS240317000000000000000021003170000000002142000000000000000000000000001000036691615115MARCOS LUIZ LOURENCO COCA               DOS PIONEIROS                           00000000000 7980000000000                                                       000201
1AAA            AAB                            172002651      20170208 N B0311    00000000000002            0100000002653004170000000057742         KS230417000000000000000021004170000000002142000000000000000000000000001000036691615115MARCOS LUIZ LOURENCO COCA               DOS PIONEIROS                           00000000000 7980000000000                                                       000202
1AAA            AAB                            172002660      20170208 N B0411    00000000000002            0100000002663105170000000057742         KS240517000000000000000021005170000000002142000000000000000000000000001000036691615115MARCOS LUIZ LOURENCO COCA               DOS PIONEIROS                           00000000000 7980000000000                                                       000203
1AAA            AAB                            172002678      20170208 N B0511    00000000000002            0100000002673006170000000057742         KS230617000000000000000021006170000000002142000000000000000000000000001000036691615115MARCOS LUIZ LOURENCO COCA               DOS PIONEIROS                           00000000000 7980000000000                                                       000204
1AAA            AAB                            172002686      20170208 N B0611    00000000000002            0100000002683107170000000057742         KS240717000000000000000021007170000000002142000000000000000000000000001000036691615115MARCOS LUIZ LOURENCO COCA               DOS PIONEIROS                           00000000000 7980000000000                                                       000205
1AAA            AAB                            172002694      20170208 N B0711    00000000000002            0100000002693108170000000057742         KS240817000000000000000021008170000000002142000000000000000000000000001000036691615115MARCOS LUIZ LOURENCO COCA               DOS PIONEIROS                           00000000000 7980000000000                                                       000206
1AAA            AAB                            172002708      20170208 N B0811    00000000000002            0100000002703009170000000057742         KS230917000000000000000021009170000000002142000000000000000000000000001000036691615115MARCOS LUIZ LOURENCO COCA               DOS PIONEIROS                           00000000000 7980000000000                                                       000207
1AAA            AAB                            172002716      20170208 N B0911    00000000000002            0100000002713110170000000042742         KS241017000000000000000021010170000000002142000000000000000000000000001000036691615115MARCOS LUIZ LOURENCO COCA               DOS PIONEIROS                           00000000000 7980000000000                                                       000208
1AAA            AAB                            172002724      20170208 N B1011    00000000000002            0100000002723011170000000042742         KS231117000000000000000021011170000000002142000000000000000000000000001000036691615115MARCOS LUIZ LOURENCO COCA               DOS PIONEIROS                           00000000000 7980000000000                                                       000209
1AAA            AAB                            172002732      20170208 N B1111    00000000000002            0100000002733112170000000042742         KS241217000000000000000021012170000000002142000000000000000000000000001000036691615115MARCOS LUIZ LOURENCO COCA               DOS PIONEIROS                           00000000000 7980000000000                                                       000210
1AAA            AAB                            172002740      20170208 N B1211    00000000000002            0100000002742802170000000060795         KS210217000000000000000022002170000000002295000000000000000000000000001000033783322120DALVANI LUCILA DE ARAUJO DA SILVA       ADROALDO PIZZINI                        00000000000 7981402000000                                                       000211
1AAA            AAB                            172002759      20170208 N B0211    00000000000002            0100000002753103170000000060795         KS240317000000000000000021003170000000002295000000000000000000000000001000033783322120DALVANI LUCILA DE ARAUJO DA SILVA       ADROALDO PIZZINI                        00000000000 7981402000000                                                       000212
1AAA            AAB                            172002767      20170208 N B0311    00000000000002            0100000002763004170000000060795         KS230417000000000000000021004170000000002295000000000000000000000000001000033783322120DALVANI LUCILA DE ARAUJO DA SILVA       ADROALDO PIZZINI                        00000000000 7981402000000                                                       000213
1AAA            AAB                            172002775      20170208 N B0411    00000000000002            0100000002773105170000000060795         KS240517000000000000000021005170000000002295000000000000000000000000001000033783322120DALVANI LUCILA DE ARAUJO DA SILVA       ADROALDO PIZZINI                        00000000000 7981402000000                                                       000214
1AAA            AAB                            172002783      20170208 N B0511    00000000000002            0100000002783006170000000060795         KS230617000000000000000021006170000000002295000000000000000000000000001000033783322120DALVANI LUCILA DE ARAUJO DA SILVA       ADROALDO PIZZINI                        00000000000 7981402000000                                                       000215
1AAA            AAB                            172002791      20170208 N B0611    00000000000002            0100000002793107170000000060795         KS240717000000000000000021007170000000002295000000000000000000000000001000033783322120DALVANI LUCILA DE ARAUJO DA SILVA       ADROALDO PIZZINI                        00000000000 7981402000000                                                       000216
1AAA            AAB                            172002805      20170208 N B0711    00000000000002            0100000002803108170000000060795         KS240817000000000000000021008170000000002295000000000000000000000000001000033783322120DALVANI LUCILA DE ARAUJO DA SILVA       ADROALDO PIZZINI                        00000000000 7981402000000                                                       000217
1AAA            AAB                            172002813      20170208 N B0811    00000000000002            0100000002813009170000000060795         KS230917000000000000000021009170000000002295000000000000000000000000001000033783322120DALVANI LUCILA DE ARAUJO DA SILVA       ADROALDO PIZZINI                        00000000000 7981402000000                                                       000218
1AAA            AAB                            172002821      20170208 N B0911    00000000000002            0100000002823110170000000045795         KS241017000000000000000021010170000000002295000000000000000000000000001000033783322120DALVANI LUCILA DE ARAUJO DA SILVA       ADROALDO PIZZINI                        00000000000 7981402000000                                                       000219
1AAA            AAB                            172002830      20170208 N B1011    00000000000002            0100000002833011170000000045795         KS231117000000000000000021011170000000002295000000000000000000000000001000033783322120DALVANI LUCILA DE ARAUJO DA SILVA       ADROALDO PIZZINI                        00000000000 7981402000000                                                       000220
1AAA            AAB                            172002848      20170208 N B1111    00000000000002            0100000002843112170000000045795         KS241217000000000000000021012170000000002295000000000000000000000000001000033783322120DALVANI LUCILA DE ARAUJO DA SILVA       ADROALDO PIZZINI                        00000000000 7981402000000                                                       000221
1AAA            AAB                            172002856      20170208 N B1211    00000000000002            0100000002852802170000000045530         KS210217000000000000000022002170000000000153000000000000000000000000001000010425438104JOAO MANOEL RAMOS DOS SANTOS            JOAQUIM ALVES TAVEIRA                   00000000000 7982305000000                                                       000222
1AAA            AAB                            172002864      20170208 N B0211    00000000000002            0100000002863103170000000045530         KS240317000000000000000021003170000000000153000000000000000000000000001000010425438104JOAO MANOEL RAMOS DOS SANTOS            JOAQUIM ALVES TAVEIRA                   00000000000 7982305000000                                                       000223
1AAA            AAB                            172002872      20170208 N B0311    00000000000002            0100000002873004170000000045530         KS230417000000000000000021004170000000000153000000000000000000000000001000010425438104JOAO MANOEL RAMOS DOS SANTOS            JOAQUIM ALVES TAVEIRA                   00000000000 7982305000000                                                       000224
1AAA            AAB                            172002880      20170208 N B0411    00000000000002            0100000002883105170000000045530         KS240517000000000000000021005170000000000153000000000000000000000000001000010425438104JOAO MANOEL RAMOS DOS SANTOS            JOAQUIM ALVES TAVEIRA                   00000000000 7982305000000                                                       000225
1AAA            AAB                            172002899      20170208 N B0511    00000000000002            0100000002893006170000000045530         KS230617000000000000000021006170000000000153000000000000000000000000001000010425438104JOAO MANOEL RAMOS DOS SANTOS            JOAQUIM ALVES TAVEIRA                   00000000000 7982305000000                                                       000226
1AAA            AAB                            172002902      20170208 N B0611    00000000000002            0100000002903107170000000045530         KS240717000000000000000021007170000000000153000000000000000000000000001000010425438104JOAO MANOEL RAMOS DOS SANTOS            JOAQUIM ALVES TAVEIRA                   00000000000 7982305000000                                                       000227
1AAA            AAB                            172002910      20170208 N B0711    00000000000002            0100000002913108170000000045530         KS240817000000000000000021008170000000000153000000000000000000000000001000010425438104JOAO MANOEL RAMOS DOS SANTOS            JOAQUIM ALVES TAVEIRA                   00000000000 7982305000000                                                       000228
1AAA            AAB                            172002929      20170208 N B0811    00000000000002            0100000002923009170000000045530         KS230917000000000000000021009170000000000153000000000000000000000000001000010425438104JOAO MANOEL RAMOS DOS SANTOS            JOAQUIM ALVES TAVEIRA                   00000000000 7982305000000                                                       000229
1AAA            AAB                            172002937      20170208 N B0911    00000000000002            0100000002933110170000000030530         KS241017000000000000000021010170000000000153000000000000000000000000001000010425438104JOAO MANOEL RAMOS DOS SANTOS            JOAQUIM ALVES TAVEIRA                   00000000000 7982305000000                                                       000230
1AAA            AAB                            172002945      20170208 N B1011    00000000000002            0100000002943011170000000030530         KS231117000000000000000021011170000000000153000000000000000000000000001000010425438104JOAO MANOEL RAMOS DOS SANTOS            JOAQUIM ALVES TAVEIRA                   00000000000 7982305000000                                                       000231
1AAA            AAB                            172002953      20170208 N B1111    00000000000002            0100000002953112170000000030530         KS241217000000000000000021012170000000000153000000000000000000000000001000010425438104JOAO MANOEL RAMOS DOS SANTOS            JOAQUIM ALVES TAVEIRA                   00000000000 7982305000000                                                       000232
1AAA            AAB                            172002961      20170208 N B1211    00000000000002            0100000002962802170000000063848         KS210217000000000000000022002170000000002448000000000000000000000000001000058205047120ROGERIO DIAS RENOVATO                   JOAQUIM ALVES TAVEIRA                   00000000000 7982506000000                                                       000233
1AAA            AAB                            172002970      20170208 N B0211    00000000000002            0100000002973103170000000063848         KS240317000000000000000021003170000000002448000000000000000000000000001000058205047120ROGERIO DIAS RENOVATO                   JOAQUIM ALVES TAVEIRA                   00000000000 7982506000000                                                       000234
1AAA            AAB                            172002988      20170208 N B0311    00000000000002            0100000002983004170000000063848         KS230417000000000000000021004170000000002448000000000000000000000000001000058205047120ROGERIO DIAS RENOVATO                   JOAQUIM ALVES TAVEIRA                   00000000000 7982506000000                                                       000235
1AAA            AAB                            172002996      20170208 N B0411    00000000000002            0100000002993105170000000063848         KS240517000000000000000021005170000000002448000000000000000000000000001000058205047120ROGERIO DIAS RENOVATO                   JOAQUIM ALVES TAVEIRA                   00000000000 7982506000000                                                       000236
1AAA            AAB                            172003003      20170208 N B0511    00000000000002            0100000003003006170000000063848         KS230617000000000000000021006170000000002448000000000000000000000000001000058205047120ROGERIO DIAS RENOVATO                   JOAQUIM ALVES TAVEIRA                   00000000000 7982506000000                                                       000237
1AAA            AAB                            172003011      20170208 N B0611    00000000000002            0100000003013107170000000063848         KS240717000000000000000021007170000000002448000000000000000000000000001000058205047120ROGERIO DIAS RENOVATO                   JOAQUIM ALVES TAVEIRA                   00000000000 7982506000000                                                       000238
1AAA            AAB                            172003020      20170208 N B0711    00000000000002            0100000003023108170000000063848         KS240817000000000000000021008170000000002448000000000000000000000000001000058205047120ROGERIO DIAS RENOVATO                   JOAQUIM ALVES TAVEIRA                   00000000000 7982506000000                                                       000239
1AAA            AAB                            172003038      20170208 N B0811    00000000000002            0100000003033009170000000063848         KS230917000000000000000021009170000000002448000000000000000000000000001000058205047120ROGERIO DIAS RENOVATO                   JOAQUIM ALVES TAVEIRA                   00000000000 7982506000000                                                       000240
1AAA            AAB                            172003046      20170208 N B0911    00000000000002            0100000003043110170000000063848         KS241017000000000000000021010170000000002448000000000000000000000000001000058205047120ROGERIO DIAS RENOVATO                   JOAQUIM ALVES TAVEIRA                   00000000000 7982506000000                                                       000241
1AAA            AAB                            172003054      20170208 N B1011    00000000000002            0100000003053011170000000048848         KS231117000000000000000021011170000000002448000000000000000000000000001000058205047120ROGERIO DIAS RENOVATO                   JOAQUIM ALVES TAVEIRA                   00000000000 7982506000000                                                       000242
1AAA            AAB                            172003062      20170208 N B1111    00000000000002            0100000003063112170000000048848         KS241217000000000000000021012170000000002448000000000000000000000000001000058205047120ROGERIO DIAS RENOVATO                   JOAQUIM ALVES TAVEIRA                   00000000000 7982506000000                                                       000243
1AAA            AAB                            172003070      20170208 N B1211    00000000000002            0100000003072802170000000057742         KS210217000000000000000022002170000000002142000000000000000000000000001000067068413900VANDERLEI TESTON                        SALVIANO PEDROSO                        00000000000 7984048000000                                                       000244
1AAA            AAB                            172003089      20170208 N B0211    00000000000002            0100000003083103170000000057742         KS240317000000000000000021003170000000002142000000000000000000000000001000067068413900VANDERLEI TESTON                        SALVIANO PEDROSO                        00000000000 7984048000000                                                       000245
1AAA            AAB                            172003097      20170208 N B0311    00000000000002            0100000003093004170000000057742         KS230417000000000000000021004170000000002142000000000000000000000000001000067068413900VANDERLEI TESTON                        SALVIANO PEDROSO                        00000000000 7984048000000                                                       000246
1AAA            AAB                            172003100      20170208 N B0411    00000000000002            0100000003103105170000000057742         KS240517000000000000000021005170000000002142000000000000000000000000001000067068413900VANDERLEI TESTON                        SALVIANO PEDROSO                        00000000000 7984048000000                                                       000247
1AAA            AAB                            172003119      20170208 N B0511    00000000000002            0100000003113006170000000057742         KS230617000000000000000021006170000000002142000000000000000000000000001000067068413900VANDERLEI TESTON                        SALVIANO PEDROSO                        00000000000 7984048000000                                                       000248
1AAA            AAB                            172003127      20170208 N B0611    00000000000002            0100000003123107170000000057742         KS240717000000000000000021007170000000002142000000000000000000000000001000067068413900VANDERLEI TESTON                        SALVIANO PEDROSO                        00000000000 7984048000000                                                       000249
